:100000000C9436000C945E000C945E000C945E0020
:100010000C945E000C945E000C945E000C945E00E8
:100020000C945E000C945E000C945E000C945E00D8
:100030000C945E000C945E000C945E000C945E00C8
:100040000C9455030C945E000C94C5030C949F0310
:100050000C945E000C945E000C945E000C945E00A8
:100060000C945E000C945E00F7036C0511241FBE17
:10007000CFEFD8E0DEBFCDBF22E0A4E7B1E001C002
:100080001D92A532B207E1F711E0A0E0B1E0EEEA7F
:10009000FFE002C005900D92A437B107D9F710E038
:1000A000C5E3D0E004C02197FE010E94C905C43316
:1000B000D107C9F70E9429040C94CA070C940000C8
:1000C0000895AF92BF92CF92DF92EF92FF920F937B
:1000D0001F93CF93DF936C017B018B01040F151FDE
:1000E000EB015E01AE18BF08C017D10759F0699146
:1000F000D601ED91FC910190F081E02DC6010995AA
:10010000892B79F7C501DF91CF911F910F91FF9056
:10011000EF90DF90CF90BF90AF900895FC01538D8A
:10012000448D252F30E0842F90E0821B930B5417D1
:1001300010F0CF96089501970895FC01918D828D5E
:10014000981761F0A28DAE0FBF2FB11D5D968C91F7
:10015000928D9F5F9F73928F90E008958FEF9FEF36
:1001600008952FB7F89480917A0190917B01A09126
:100170007C01B0917D012FBF809386019093870110
:10018000A0938801B09389018EE791E00E949D00C1
:1001900097FF26C02FB7F89480917A0190917B0148
:1001A000A0917C01B0917D012FBF409186015091BB
:1001B00087016091880170918901841B950BA60BC2
:1001C000B70B40918201509183016091840170913D
:1001D000850184179507A607B707B0F28FEF9FEF49
:1001E0000895FC01918D828D981731F0828DE80F72
:1001F000F11D858D90E008958FEF9FEF0895FC012C
:10020000918D228D892F90E0805C9F4F821B9109F8
:100210008F73992708958EE791E00E94FF0021E0F7
:10022000892B09F420E0822F089580E090E0892B4B
:1002300029F00E940B0181110C9400000895FC012B
:10024000A48DA80FB92FB11DA35ABF4F2C91848D37
:1002500090E001968F739927848FA689B7892C9394
:10026000A089B1898C91837080648C93938D848DE7
:10027000981306C00288F389E02D80818F7D8083EA
:100280000895EF92FF920F931F93CF93DF93EC01AA
:1002900081E0888F9B8D8C8D98131AC0E889F9892D
:1002A000808185FF15C09FB7F894EE89FF89608330
:1002B000E889F98980818370806480839FBF81E0B1
:1002C00090E0DF91CF911F910F91FF90EF900895F3
:1002D000F62E0B8D10E00F5F1F4F0F731127E02ECE
:1002E0008C8D8E110CC00FB607FCFACFE889F98906
:1002F000808185FFF5CFCE010E941F01F1CFEB8DEC
:10030000EC0FFD2FF11DE35AFF4FF0829FB7F894D9
:100310000B8FEA89FB8980818062CFCFCF93DF93F7
:10032000EC01888D8823B9F0AA89BB89E889F9890D
:100330008C9185FD03C0808186FD0DC00FB607FC42
:10034000F7CF8C9185FFF2CF808185FFEDCFCE0175
:100350000E941F01E9CFDF91CF9108958F929F9264
:10036000AF92BF920F931F93CF93DF93CDB7DEB7BA
:10037000A1970FB6F894DEBF0FBECDBF19A24230D1
:1003800008F44AE08E010F5D1F4F842E912CB12C92
:10039000A12CA50194010E94A705E62FB901CA016D
:1003A000EA3044F5E05DD801EE938D01232B242B38
:1003B000252B79F790E080E0109769F0FD0101901E
:1003C0000020E9F73197AF014A1B5B0BBD018EE7B7
:1003D00091E00E946100A1960FB6F894DEBF0FBEB7
:1003E000CDBFDF91CF911F910F91BF90AF909F90A4
:1003F0008F900895E95CD7CF0F931F93CF93DF932E
:10040000EC0188819981009759F02A813B81261758
:10041000370730F081E0DF91CF911F910F91089560
:100420008B016F5F7F4F0E94F406009759F099830C
:1004300088831B830A832C813D81232B59F7FC0180
:100440001082E8CF80E0E7CFFC01808191810097A6
:1004500011F00C946B060895EF92FF920F931F9387
:10046000CF93DF93EC017B01198218821B821A82E1
:100470001D821C82FB0101900020E9F731978F015A
:10048000061B170BB8010E94FC01288139818111DC
:1004900013C02115310519F0C9010E946B0619829C
:1004A00018821D821C821B821A82DF91CF911F91BC
:1004B0000F91FF90EF9008951D830C83B701C90140
:1004C000DF91CF911F910F91FF90EF900C94C30794
:1004D000CF92DF92EF92FF92CF93DF93CDB7DEB74B
:1004E00028970FB6F894DEBF0FBECDBF6B01FC019D
:1004F00044815581608171818EE791E00E946100A5
:100500000D2C000CEE08FF084AE0C701B601F7FE0B
:100510000DC06DE28EE791E00E94410166277727CA
:10052000CB016C197D098E099F094AE00E94AE013A
:1005300042E050E06AE471E08EE791E00E946100E1
:100540008EE791E00E94FF00892B09F44EC06CE415
:1005500071E0CE0101960E942C020E94B10097FD2D
:100560001FC08D309105E1F08F831886ED80FE80ED
:10057000FFEFEF1AFF0AB701CE0101960E94FC01BE
:10058000882359F329813A818D819E81BE01695F5B
:100590007F4F820F931F0E94C307FE82ED82DDCF43
:1005A00080911B0290911C02009709F45DC0698143
:1005B0007A816115710509F455C040911D02509171
:1005C0001E022D813E814217530708F44BC00E9442
:1005D000C3078D819E819093200280931F021E820B
:1005E0001D82CE0101960E94240280911F029091EB
:1005F0002002892B09F4A4CF6DE471E080911B02E5
:1006000090911C020E94BA07892B09F099CF70E0E3
:1006100060E08BE192E00E94FC0120911B0230918E
:100620001C02811138C02115310519F0C9010E9441
:100630006B0610921C0210921B0210922002109264
:100640001F0210921E0210921D0228960FB6F894F7
:10065000DEBF0FBECDBFDF91CF91FF90EF90DF9057
:10066000CF9008950E946B0689819A8190931C0215
:1006700080931B028B819C8190931E0280931D02AC
:100680008D819E819093200280931F021A8219828D
:100690001C821B82A4CF1092200210921F026CE4D5
:1006A00071E0C9010E94C307D0CF1F920F920FB60D
:1006B0000F9211242F933F938F939F93AF93BF93E8
:1006C00080917A0190917B01A0917C01B0917D0194
:1006D0003091790123E0230F2D3758F50196A11DA4
:1006E000B11D2093790180937A0190937B01A093AF
:1006F0007C01B0937D018091750190917601A0916C
:100700007701B09178010196A11DB11D809375010B
:1007100090937601A0937701B0937801BF91AF9148
:100720009F918F913F912F910F900FBE0F901F902F
:10073000189526E8230F0296A11DB11DD2CF1F9256
:100740000F920FB60F9211242F933F934F935F9305
:100750006F937F938F939F93AF93BF93EF93FF9389
:100760008EE791E00E941F01FF91EF91BF91AF9141
:100770009F918F917F916F915F914F913F912F91B9
:100780000F900FBE0F901F9018951F920F920FB6EB
:100790000F9211242F938F939F93EF93FF93E091E8
:1007A0008E01F0918F018081E0919401F09195018B
:1007B00082FD1BC09081809197018F5F8F73209184
:1007C0009801821741F0E0919701F0E0E258FE4F66
:1007D000958F80939701FF91EF919F918F912F912A
:1007E0000F900FBE0F901F9018958081F4CFEEE709
:1007F000F1E01382128288EE93E0A0E0B0E08483FF
:100800009583A683B7838CE391E09183808385EC05
:1008100090E09587848784EC90E09787868780ECCA
:1008200090E0918B808B81EC90E0938B828B82ECBB
:1008300090E0958B848B86EC90E0978B868B118E65
:10084000128E138E148E6CE471E08BE192E00C94A6
:100850002C02CF93DF9300D000D000D0CDB7DEB70D
:10086000789484B5826084BD84B5816084BD85B58B
:10087000826085BD85B5816085BD80916E00816097
:1008800080936E001092810080918100826080933D
:10089000810080918100816080938100809180003F
:1008A0008160809380008091B10084608093B1006A
:1008B0008091B00081608093B00080917A00846064
:1008C00080937A0080917A00826080937A00809190
:1008D0007A00816080937A0080917A0080688093AA
:1008E0007A001092C100E0918E01F0918F0182E0B8
:1008F0008083E0918A01F0918B011082E0918C015C
:10090000F0918D018FEC808310929601E09192011D
:10091000F091930186E08083E0919001F091910144
:10092000808180618083E0919001F09191018081CC
:1009300088608083E0919001F091910180818068CE
:100940008083E0919001F091910180818F7D80837F
:1009500087E090E00197F1F700E010E0FF24F394C6
:10096000809174018111ACC08091000190910101CE
:100970008630910508F0A2C0DC01AA0FBB1FAA0FA8
:10098000BB1FA05EBE4F880F991F880F991FFC01E7
:10099000E45EFE4FCD90DC9080819181C81AD90A27
:1009A0006FE471E0CE0101960E942C02B601CE01E7
:1009B00001960E946802CE0101960E942402809155
:1009C000000190910101DC01AA0FBB1FAA0FBB1F00
:1009D000A05EBE4F880F991F880F991FFC01E45E2F
:1009E000FE4FCD90DC9080819181C81AD90A68E5CC
:1009F00071E0CE0101960E942C02B601CE01019653
:100A00000E946802CE0101960E942402809100019A
:100A100090910101DC01AA0FBB1FAA0FBB1FA85FA9
:100A2000BE4F880F991F880F991FFC01EC5FFE4F86
:100A3000CD90DC9080819181C81AD90A61E671E07D
:100A4000CE0101960E942C02B601CE0101960E94B1
:100A50006802CE0101960E942402809100019091CB
:100A60000101DC01AA0FBB1FAA0FBB1FA85FBE4F6D
:100A7000880F991F880F991FFC01EC5FFE4FCD90E6
:100A8000DC9080819181C81AD90A6AE671E0CE01B2
:100A900001960E942C02B601CE0101960E946802C6
:100AA000CE0101960E9424028091000190910101E3
:100AB0000196909301018093000156CFF09274014A
:100AC0000115110509F44CCF0E940B01882309F48C
:100AD00047CF0E94000044CF8BE192E00C942402A7
:100AE0002F923F924F925F926F927F928F929F923E
:100AF000AF92BF92CF92DF92EF92FF920F931F932C
:100B0000CF93DF93CDB7DEB7CA1BDB0B0FB6F894DC
:100B1000DEBF0FBECDBF09942A88398848885F841C
:100B20006E847D848C849B84AA84B984C884DF808D
:100B3000EE80FD800C811B81AA81B981CE0FD11D71
:100B40000FB6F894DEBF0FBECDBFED010895A1E250
:100B50001A2EAA1BBB1BFD010DC0AA1FBB1FEE1F37
:100B6000FF1FA217B307E407F50720F0A21BB30B82
:100B7000E40BF50B661F771F881F991F1A9469F7FE
:100B800060957095809590959B01AC01BD01CF015A
:100B90000895EE0FFF1F0590F491E02D09940F9337
:100BA0001F93CF93DF938230910510F482E090E0A1
:100BB000E0912302F091240230E020E0B0E0A0E0D8
:100BC000309799F42115310509F44AC0281B390BD7
:100BD00024303105D8F58A819B816115710589F131
:100BE000FB0193838283FE0111C040815181028108
:100BF000138148175907E0F04817590799F41097DF
:100C000061F012960C93129713961C933296CF01B3
:100C1000DF91CF911F910F910895009323021093BC
:100C20002402F4CF2115310551F04217530738F053
:100C3000A901DB019A01BD01DF01F801C1CFEF017C
:100C4000F9CF9093240280932302CDCFFE01E20FCF
:100C5000F31F819391932250310939832883D7CF91
:100C60002091210230912202232B41F42091040192
:100C7000309105013093220220932102209102013C
:100C8000309103012115310541F42DB73EB7409154
:100C9000060150910701241B350BE0912102F091D0
:100CA0002202E217F307A0F42E1B3F0B2817390787
:100CB00078F0AC014E5F5F4F2417350748F04E0FB8
:100CC0005F1F5093220240932102819391939FCF03
:100CD000F0E0E0E09CCFCF93DF930097E9F0FC01D8
:100CE000329713821282A0912302B0912402ED0167
:100CF00030E020E01097A1F420813181820F931F12
:100D000020912102309122022817390709F061C091
:100D1000F0932202E0932102DF91CF910895EA013E
:100D2000CE17DF07E8F54A815B819E014115510529
:100D3000B1F7E901FB83EA8349915991C40FD51FAB
:100D4000EC17FD0761F4808191810296840F951F55
:100D5000E90199838883828193819B838A83F0E070
:100D6000E0E012968D919C9113970097B9F52D9123
:100D70003C911197CD010296820F931F2091210281
:100D8000309122022817390739F6309751F5109221
:100D9000240210922302B0932202A0932102BCCF1E
:100DA000D383C28340815181840F951FC817D9070F
:100DB00061F44E5F5F4F88819981480F591F5183BD
:100DC00040838A819B81938382832115310509F0B9
:100DD000B0CFF0932402E09323029ECFFD01DC010B
:100DE000C0CF13821282D7CFB0E0A0E0EAEFF6E0E6
:100DF0000C9472058C01009751F4CB010E94CF0531
:100E00008C01C801CDB7DEB7E0E10C948E05FC0182
:100E1000E60FF71F9C0122503109E217F30708F48F
:100E20009DC0D901CD91DC911197C617D70798F0D5
:100E3000C530D10530F3CE0104978617970708F324
:100E4000C61BD70B2297C193D1936D937C93CF018F
:100E50000E946B06D6CF5B01AC1ABD0A4C018C0E0A
:100E60009D1EA0912302B0912402512C412CF12C03
:100E7000E12C109731F58091210290912202881582
:100E8000990509F05CC04616570608F058C08091D5
:100E9000020190910301009741F48DB79EB74091F4
:100EA000060150910701841B950BE817F90708F01C
:100EB00055C0F0932202E0932102F901718360830F
:100EC000A0CF8D919C91119712966C9012971396CA
:100ED0007C901397A815B90559F56C0142E0C40E32
:100EE000D11CCA14DB0420F1AC014A195B09DA01F8
:100EF0001296159780F06282738251834083D901E4
:100F00006D937C93E114F10471F0D7011396FC9377
:100F1000EE93129776CF22968C0F9D1FF901918345
:100F20008083F301EFCFF0932402E093230269CF93
:100F30004816590608F42C017D01D3019ACFCB0144
:100F40000E94CF057C01009749F0AE01B8010E94D4
:100F5000B107C8010E946B06870153CF10E000E083
:100F600050CFFB01DC0102C001900D924150504076
:100F7000D8F70895FB01DC018D91019080190110D3
:100F8000D9F3990B0895FB01DC0101900D9200202B
:100F9000E1F7089510E0C5E3D0E004C0FE010E942F
:0E0FA000C9052196C633D107C9F7F894FFCFD3
:100FAE00010000002502800000000000010000008A
:100FBE00020000000A000000060000000000000011
:100FCE00000000000100000002000000030000000D
:100FDE000400000005000000000000004101610057
:100FEE008E008E01FF009D00F1000D0A007C00476F
:100FFE0049524152313A20004749524152323A2029
:10100E00004749524152333A200047495241523427
:04101E003A20000074
:00000001FF
