:100000000C945E000C9486000C9486000C94860080
:100010000C9486000C9486000C9486000C94860048
:100020000C9486000C9486000C9486000C94860038
:100030000C9486000C9486000C9486000C94860028
:100040000C94CD060C9486000C949B060C947506BB
:100050000C9486000C9486000C9486000C94860008
:100060000C9486000C948600000000080002010039
:100070000003040700000000000000000000000072
:10008000250028002B0000000000240027002A0083
:10009000040404040404040402020202020203032E
:1000A0000303030301020408102040800102040836
:1000B00010200102040810201707FD0811241FBE9C
:1000C000CFEFD8E0DEBFCDBF23E0A2E6B2E001C0B3
:1000D0001D92AE31B207E1F712E0A0E0B1E0E8EE28
:1000E000FBE102C005900D92A236B107D9F710E0EE
:1000F000CDE5D0E004C02197FE010E94D20BCC35A3
:10010000D107C9F70E9449070C94E70D0C94000031
:100110000895AF92BF92CF92DF92EF92FF920F932A
:100120001F93CF93DF936C017B018B01040F151F8D
:10013000EB015E01AE18BF08C017D10759F06991F5
:10014000D601ED91FC910190F081E02DC601099559
:10015000892B79F7C501DF91CF911F910F91FF9006
:10016000EF90DF90CF90BF90AF900895FC01538D3A
:10017000448D252F30E0842F90E0821B930B541781
:1001800010F0CF96089501970895FC01918D828D0E
:10019000981761F0A28DAE0FBF2FB11D5D968C91A7
:1001A000928D9F5F9F73928F90E008958FEF9FEFE6
:1001B00008952FB7F8948091730290917402A091E2
:1001C0007502B09176022FBF80937F0290938002D8
:1001D000A0938102B093820287E792E00E94C5005B
:1001E00097FF26C02FB7F894809173029091740204
:1001F000A0917502B09176022FBF40917F0250917D
:1002000080026091810270918202841B950BA60B83
:10021000B70B40917B0250917C0260917D027091FE
:100220007E0284179507A607B707B0F28FEF9FEFFE
:100230000895FC01918D828D981731F0828DE80F21
:10024000F11D858D90E008958FEF9FEF0895FC01DB
:10025000918D228D892F90E0805C9F4F821B9109A8
:100260008F739927089587E792E00E94270121E084
:10027000892B09F420E0822F089580E090E0892BFB
:1002800029F00E94330181110C9400000895FC01B3
:10029000A48DA80FB92FB11DA35ABF4F2C91848DE7
:1002A00090E001968F739927848FA689B7892C9344
:1002B000A089B1898C91837080648C93938D848D97
:1002C000981306C00288F389E02D80818F7D80839A
:1002D0000895EF92FF920F931F93CF93DF93EC015A
:1002E00081E0888F9B8D8C8D98131AC0E889F989DD
:1002F000808185FF15C09FB7F894EE89FF896083E0
:10030000E889F98980818370806480839FBF81E060
:1003100090E0DF91CF911F910F91FF90EF900895A2
:10032000F62E0B8D10E00F5F1F4F0F731127E02E7D
:100330008C8D8E110CC00FB607FCFACFE889F989B5
:10034000808185FFF5CFCE010E944701F1CFEB8D73
:10035000EC0FFD2FF11DE35AFF4FF0829FB7F89489
:100360000B8FEA89FB8980818062CFCFCF93DF93A7
:10037000EC01888D8823B9F0AA89BB89E889F989BD
:100380008C9185FD03C0808186FD0DC00FB607FCF2
:10039000F7CF8C9185FFF2CF808185FFEDCFCE0125
:1003A0000E944701E9CFDF91CF91089590E0FC01D1
:1003B000E859FF4F2491FC01EC55FF4F3491FC01AB
:1003C000E057FF4FE491EE23C9F0222339F02330A8
:1003D00001F1A8F4213019F1223029F1F0E0EE0FFB
:1003E000FF1FE458FF4FA591B4918FB7F894EC919B
:1003F000611126C030953E233C938FBF089527306E
:10040000A9F02830C9F0243049F7809180008F7D11
:1004100003C0809180008F7780938000DFCF84B508
:100420008F7784BDDBCF84B58F7DFBCF8091B0000B
:100430008F778093B000D2CF8091B0008F7DF9CFBD
:100440003E2BDACF3FB7F89480916B0290916C020B
:10045000A0916D02B0916E0226B5A89B05C02F3FFA
:1004600019F00196A11DB11D3FBFBA2FA92F982FDA
:100470008827BC01CD01620F711D811D911D42E0D5
:10048000660F771F881F991F4A95D1F708958F929D
:100490009F92AF92BF92CF92DF92EF92FF924B0169
:1004A0005C010E9422026B017C010E9422026C19F5
:1004B0007D098E099F09683E734081059105A8F367
:1004C00021E0821A9108A108B10888EEC80E83E0E5
:1004D000D81EE11CF11C81149104A104B10429F778
:1004E000FF90EF90DF90CF90BF90AF909F908F9054
:1004F0000895FF920F931F93CF93DF93F62ED42F7F
:10050000C22FF801EE0FFF1FE05FFE4F682F8081C2
:100510000E94D601F801EE0FFF1FEE5EFE4F6F2D19
:1005200080810E94D601F801EE0FFF1FEC5EFE4FA6
:100530006D2F80810E94D601000F111FF801EA5E25
:10054000FE4F6C2F8081DF91CF911F910F91FF9013
:100550000C94D601FC0101900020E9F73197AF011E
:10056000481B590BBC0187E792E00C9489008F92DD
:100570009F92AF92BF920F931F93CF93DF93CDB70C
:10058000DEB7A1970FB6F894DEBF0FBECDBF19A29C
:10059000423008F44AE08E010F5D1F4F842E912CEB
:1005A000B12CA12CA50194010E94B00BE62FB9013A
:1005B000CA01EA30F4F4E05DD801EE938D01232BFB
:1005C000242B252B79F790E080E0109719F0CD01CE
:1005D0000E94AA02A1960FB6F894DEBF0FBECDBF4F
:1005E000DF91CF911F910F91BF90AF909F908F900F
:1005F0000895E95CE1CFCF93DF930E94AA02EC015A
:1006000082E391E00E94AA028C0F9D1FDF91CF919F
:1006100008954F925F926F927F928F929F92AF92C6
:10062000BF92CF92DF92EF92FF920F931F93CF93DF
:100630006B017C01742EAC019B010E94AB0B8823E3
:1006400099F085E391E0CF911F910F91FF90EF908A
:10065000DF90CF90BF90AF909F908F907F906F90E2
:100660005F904F900C94AA0246015701E894B7F8A6
:100670002FEF3FEF4FE75FE7C501B4010E94AB0BDF
:1006800081110DC02FEF3FEF4FE75FE7C501B401C8
:100690000E943D0918161CF489E391E0D4CF2FEF96
:1006A0003FEF4FE75FE4C701B6010E94A60B1816A3
:1006B0001CF48DE391E0C7CF2FEF3FEF4FE75FECE6
:1006C000C701B6010E943D0987FDF3CF20E030E06D
:1006D000A901C701B6010E943D0910E000E087FFB3
:1006E0000AC06DE287E792E00E9469018C01F7FA87
:1006F000F094F7F8F094C0E060E070E080E09FE3F1
:100700007C1641F020E030E040E251E40E94050B0D
:10071000CF5FF6CFA70196010E94990A2B013C01F9
:100720000E94770B4B015C014AE00E94B7027C01FA
:10073000E00EF11ECC23C1F1C501B4010E944209B3
:100740009B01AC01C301B2010E94980A4B015C01FC
:100750006EE287E792E00E946901E80EF91EC1503F
:1007600018F120E030E040E251E4C501B4010E94FC
:10077000A3092B013C010E94770B4B01B12CA12C4A
:100780004AE0C501B4010E94B702E80EF91EC50196
:10079000B4010E9442099B01AC01C301B2010E9455
:1007A000980A4B015C01DBCFC701CF911F910F91DC
:1007B000FF90EF90DF90CF90BF90AF909F908F9081
:1007C0007F906F905F904F900895CF92DF92EF925D
:1007D000FF92CF93DF936C01990FEE08FF08F7FEAD
:1007E0001FC06DE287E792E00E946901EC01662775
:1007F0007727CB016C197D098E099F094AE00E9479
:10080000B702C80FD91F82E391E00E94AA028C0FA1
:100810009D1FDF91CF91FF90EF90DF90CF900895D3
:100820004AE0C701B6010E94B702EC01ECCFCF92BB
:10083000DF92EF92FF920F931F937B018A01209129
:100840000401309105012830310520F09093050115
:1008500080930401E0910401E830E0F4F0E0ED5C05
:10086000FB4F0C94D20B3B043F044404C404C70464
:10087000CB04CD04D00420E040E060E003C020E0E1
:1008800040E061E081E004C020E040E061E080E021
:100890000E94790281E491E00E94AA028091040101
:1008A000909105010E94E50389E491E00E94AA026B
:1008B000C701F7FE03C091958195910901960E94A9
:1008C000E50381E591E00E94AA028091680290917F
:1008D00069020E94E5038DE591E00E94AA02609101
:1008E000640270916502809166029091670242E015
:1008F0000E94090382E391E00E94AA0285E691E04A
:100900000E94FB026091000170910101809102013F
:10091000909103010E94770B6230710548F0660FD9
:10092000771F660F771F65507109CB010197F1F7AB
:10093000809162029091630201969093630280938A
:10094000620264E170E0681B790B072E000C880BD3
:10095000990B0E9444096B017C0120E030E040EAE1
:1009600050E40E943D0987FD1DC0C0920001D09255
:100970000101E0920201F09203011F910F91FF909B
:10098000EF90DF90CF90089520E041E07FCF20E00E
:1009900041E060E07CCF21E0FBCF21E040E0F9CFF7
:1009A00021E06ACF80E090E0A0EAB0E4809300010B
:1009B00090930101A0930201B0930301DECF409117
:1009C00018035091190341155105F1F0BA0184172C
:1009D000950708F4BC018091140390911503461B00
:1009E000570B5093190340931803680F791F0E9407
:1009F000D80DE0911403F0911503809118039091A4
:100A00001903E80FF91F10820895FC0144815581F4
:100A100080911803909119038417950780F08091B5
:100A2000140390911503009751F060817181611555
:100A3000710529F00E94CA0D21E0892B09F020E000
:100A4000822F08958F929F92AF92BF92CF92DF92A2
:100A5000EF92FF920F931F93CF93DF93EC0188E007
:100A600090E00E94DF048091140390911503009799
:100A700009F467C00E9401098B01709369026093B9
:100A80006802072E000C880B990B0E94440926E689
:100A900036E646E65FE30E94A3094B015C01209124
:100AA00064023091650240916602509167020E9493
:100AB000990A6B017C01C0926402D0926502E092B7
:100AC0006602F092670220916F02309170024091AD
:100AD0007102509172020E94A60B18160CF07FC092
:100AE00020910601309107014091080150910901C0
:100AF000C701B6010E943D0987FF71C017FD25C0DF
:100B000010E000E0809168029091690208171907CF
:100B1000E4F4AE01B80190E080E00E9417046CE2BA
:100B200071E080E090E00E9447020F5F1F4F8091CC
:100B300004019091050101969093050180930401B1
:100B4000E1CF60E070E0CB0197CF80916802909197
:100B5000690297FF33C080910401909105010297CB
:100B6000909305018093040110E000E080916802F9
:100B70009091690280179107C4F4AE01B80187E033
:100B800090E00E9417046CE271E080E090E00E9427
:100B900047020150110980910401909105010197CC
:100BA0009093050180930401E1CF8091040190911D
:100BB000050102969093050180930401109263024F
:100BC00010926202DF91CF911F910F91FF90EF90F1
:100BD000DF90CF90BF90AF909F908F900895A50128
:100BE0009401C701B6010E94980A60936402709351
:100BF0006502809366029093670242E00E940903B7
:100C000082E391E00E94AA028BE791E00E94FB023E
:100C1000D5CFFC0180819181009711F00C94740C68
:100C200008950F931F93CF93DF93EC0188819981EF
:100C3000009759F02A813B812617370730F081E071
:100C4000DF91CF911F910F9108958B016F5F7F4FBF
:100C50000E94FD0C009759F0998388831B830A83B7
:100C60002C813D81232B59F7FC011082E8CF80E0D5
:100C7000E7CFEF92FF920F931F93CF93DF93EC0197
:100C80007B01198218821B821A821D821C82FB0141
:100C900001900020E9F731978F01061B170BB8016F
:100CA0000E94110628813981811113C02115310557
:100CB00019F0C9010E94740C198218821D821C82CD
:100CC0001B821A82DF91CF911F910F91FF90EF90BD
:100CD00008951D830C83B701C901DF91CF911F9146
:100CE0000F91FF90EF900C94C30D1F920F920FB6CF
:100CF0000F9211242F933F934F935F936F937F93A2
:100D00008F939F93AF93BF93EF93FF9387E792E007
:100D10000E944701FF91EF91BF91AF919F918F91F9
:100D20007F916F915F914F913F912F910F900FBEE7
:100D30000F901F9018951F920F920FB60F921124CB
:100D40002F938F939F93EF93FF93E0918702F091FE
:100D500088028081E0918D02F0918E0282FD1BC09D
:100D60009081809190028F5F8F7320919102821702
:100D700041F0E0919002F0E0E958FD4F958F8093AB
:100D80009002FF91EF919F918F912F910F900FBE45
:100D90000F901F9018958081F4CF1F920F920FB67D
:100DA0000F9211242F933F938F939F93AF93BF93F1
:100DB0008091730290917402A0917502B0917602B5
:100DC00030916A0223E0230F2D3758F50196A11DBB
:100DD000B11D20936A028093730290937402A093D2
:100DE0007502B093760280916B0290916C02A09193
:100DF0006D02B0916E020196A11DB11D80936B0230
:100E000090936C02A0936D02B0936E02BF91AF916C
:100E10009F918F913F912F910F900FBE0F901F9038
:100E2000189526E8230F0296A11DB11DD2CFE7E742
:100E3000F2E01382128288EE93E0A0E0B0E08483B7
:100E40009583A683B78384E291E09183808385ECC8
:100E500090E09587848784EC90E09787868780EC84
:100E600090E0918B808B81EC90E0938B828B82EC75
:100E700090E0958B848B86EC90E0978B868B118E1F
:100E8000128E138E148E64E371E084E193E00C946F
:100E90003906CF93DF93CDB7DEB728970FB6F89416
:100EA000DEBF0FBECDBF789484B5826084BD84B5AB
:100EB000816084BD85B5826085BD85B5816085BD55
:100EC00080916E00816080936E001092810080910D
:100ED0008100826080938100809181008160809395
:100EE0008100809180008160809380008091B100BA
:100EF00084608093B1008091B00081608093B000E5
:100F000080917A00846080937A0080917A00826078
:100F100080937A0080917A00816080937A0080913A
:100F20007A00806880937A001092C100E091870275
:100F3000F091880282E08083E0918302F091840244
:100F40001082E0918502F09186028FEC80831092EE
:100F50008F02E0918B02F0918C0286E08083E09119
:100F60008902F0918A02808180618083E091890208
:100F7000F0918A02808188608083E0918902F091FB
:100F80008A02808180688083E0918902F0918A02E0
:100F900080818F7D8083A0E1B1E08D919D91992723
:100FA000FC01EC55FF4F249180579F4FFC01849129
:100FB0008823A1F090E0880F991FFC01EA57FF4FAA
:100FC00045915491FC01E458FF4F859194918FB75E
:100FD000F894FA019081922B90838FBFF1E0A032B8
:100FE000BF07D9F680E0E82E80E0F82E87E792E090
:100FF0000E942701892B09F4CDC064E371E0CE0182
:1010000001960E9439060E94D90097FD1EC08D30BE
:101010009105D9F08F8318860D811E810F5F1F4FB8
:10102000B801CE0101960E941106882361F329813F
:101030003A818D819E81BE01695F7F4F820F931F30
:101040000E94C30D1E830D83DECF80911403909107
:101050001503009709F4B2C069817A8161157105A1
:1010600009F4AAC040911603509117032D813E81C7
:101070004217530708F4A0C00E94C30D8D819E81C2
:1010800090931903809318031E821D82CE0101964E
:101090000E9409066FED71E0CE0101960E943906AB
:1010A000CE0101960E940505182FCE0101960E94DF
:1010B000090690E080E0111113C068EE71E0CE01E6
:1010C00001960E943906CE0101960E940505182F4F
:1010D000CE0101960E940906112321F084E090E0E0
:1010E0000E94220561EF71E0CE0101960E9439064F
:1010F000CE0101960E940505182FCE0101960E948F
:1011000009061123D9F087E090E00E94DF04809166
:10111000140390911503009709F467C00E94010918
:101120000E944409609306017093070180930801AF
:101130009093090189EF91E00E94FB0269E272E05D
:10114000CE0101960E943906CE0101960E94050546
:10115000182FCE0101960E9409061123D9F088E0CC
:1011600090E00E94DF048091140390911503009792
:1011700009F43FC00E9401090E94440960936F0274
:1011800070937002809371029093720282E392E0F6
:101190000E94FB0268EE73E080E090E00E9447024C
:1011A000E114F10409F422CF0E943301882309F4E9
:1011B0001DCF0E9400001ACF0E94740C89819A8171
:1011C00090931503809314038B819C819093170354
:1011D000809316038D819E81909319038093180349
:1011E0001A8219821C821B824FCF60E070E0CB0113
:1011F00097CF60E070E0CB01BFCF84E193E00C9427
:1012000009061F93FC0199278827BC01E8941191D6
:101210001032E9F3193010F01E30C8F31B3251F0D0
:101220001D3249F4689406C00E942809610F711D9F
:10123000811D911D119110531A30B0F33EF4909519
:101240008095709561957F4F8F4F9F4F1F910895A7
:10125000592F482F372F262F660F771F881F991F6A
:10126000660F771F881F991F620F731F841F951FBA
:10127000660F771F881F991F08950E947F0908F441
:1012800081E00895E89409C097FB3EF4909580951D
:10129000709561957F4F8F4F9F4F9923A9F0F92F3C
:1012A00096E9BB279395F695879577956795B795BA
:1012B000F111F8CFFAF4BB0F11F460FF1BC06F5FA0
:1012C0007F4F8F4F9F4F16C0882311F096E911C0B2
:1012D000772321F09EE8872F762F05C0662371F0D3
:1012E00096E8862F70E060E02AF09A95660F771FE7
:1012F000881FDAF7880F9695879597F90895990FC3
:101300000008550FAA0BE0E8FEEF16161706E807CF
:10131000F907C0F012161306E407F50798F0621BF0
:10132000730B840B950B39F40A2661F0232B242BC5
:10133000252B21F408950A2609F4A140A6958FEFE4
:10134000811D811D08950E94B6090C94270A0E94F0
:10135000190A38F00E94200A20F0952311F00C940D
:10136000100A0C94160A11240C945B0A0E94380A85
:1013700070F3959FC1F3950F50E0551F629FF001E8
:10138000729FBB27F00DB11D639FAA27F00DB11D01
:10139000AA1F649F6627B00DA11D661F829F22278A
:1013A000B00DA11D621F739FB00DA11D621F839F11
:1013B000A00D611D221F749F3327A00D611D231FE7
:1013C000849F600D211D822F762F6A2F11249F5735
:1013D00050409AF0F1F088234AF0EE0FFF1FBB1F38
:1013E000661F771F881F91505040A9F79E3F5105F7
:1013F00080F00C94100A0C945B0A5F3FE4F3983E73
:10140000D4F3869577956795B795F795E7959F5FA0
:10141000C1F7FE2B880F911D9695879597F9089532
:1014200097F99F6780E870E060E008959FEF80EC97
:10143000089500240A94161617061806090608953A
:1014400000240A9412161306140605060895092EA0
:101450000394000C11F4882352F0BB0F40F4BF2B0F
:1014600011F460FF04C06F5F7F4F8F4F9F4F08954F
:1014700057FD9058440F551F59F05F3F71F0479545
:10148000880F97FB991F61F09F3F79F0879508952A
:10149000121613061406551FF2CF4695F1DF08C049
:1014A000161617061806991FF1CF86957105610566
:1014B00008940895E894BB2766277727CB0197F90E
:1014C00008952F923F924F925F926F927F928F92E8
:1014D0009F92AF92BF92CF92DF92EF92FF920F93C3
:1014E0001F93CF93DF93CDB7DEB7CA1BDB0B0FB6CD
:1014F000F894DEBF0FBECDBF09942A88398848888A
:101500005F846E847D848C849B84AA84B984C8841F
:10151000DF80EE80FD800C811B81AA81B981CE0F16
:10152000D11D0FB6F894DEBF0FBECDBFED010895FB
:101530005058BB27AA270E94B00A0C94270A0E9481
:10154000190A38F00E94200A20F039F49F3F19F45C
:1015500026F40C94160A0EF4E095E7FB0C94100A9E
:10156000E92F0E94380A58F3BA17620773078407F5
:10157000950720F079F4A6F50C945A0A0EF4E0953C
:101580000B2EBA2FA02D0B01B90190010C01CA013D
:10159000A0011124FF27591B99F0593F50F4503EE8
:1015A00068F11A16F040A22F232F342F4427585FDA
:1015B000F3CF469537952795A795F0405395C9F7F2
:1015C0007EF41F16BA0B620B730B840BBAF09150AA
:1015D000A1F0FF0FBB1F661F771F881FC2F70EC049
:1015E000BA0F621F731F841F48F48795779567951C
:1015F000B795F7959E3F08F0B0CF9395880F08F008
:101600009927EE0F9795879508950E94190B0C94D2
:10161000270A0E94200A58F00E94190A40F029F473
:101620005F3F29F00C94100A51110C945B0A0C9442
:10163000160A0E94380A68F39923B1F3552391F3EF
:10164000951B550BBB27AA2762177307840738F031
:101650009F5F5F4F220F331F441FAA1FA9F335D08E
:101660000E2E3AF0E0E832D091505040E695001C42
:10167000CAF72BD0FE2F29D0660F771F881FBB1FFC
:10168000261737074807AB07B0E809F0BB0B802DDA
:10169000BF01FF2793585F4F3AF09E3F510578F006
:1016A0000C94100A0C945B0A5F3FE4F3983ED4F369
:1016B000869577956795B795F7959F5FC9F7880FDA
:1016C000911D9695879597F90895E1E0660F771F2C
:1016D000881FBB1F621773078407BA0720F0621BBD
:1016E000730B840BBA0BEE1F88F7E09508950E94E8
:1016F000400A88F09F5798F0B92F9927B751B0F05A
:10170000E1F0660F771F881F991F1AF0BA95C9F785
:1017100014C0B13091F00E945A0AB1E008950C94BF
:101720005A0A672F782F8827B85F39F0B93FCCF372
:10173000869577956795B395D9F73EF49095809502
:10174000709561957F4F8F4F9F4F08950E947F093D
:1017500008F48FEF08950E947F09880B990B089574
:10176000A1E21A2EAA1BBB1BFD010DC0AA1FBB1FA5
:10177000EE1FFF1FA217B307E407F50720F0A21B17
:10178000B30BE40BF50B661F771F881F991F1A9484
:1017900069F760957095809590959B01AC01BD01AE
:1017A000CF010895EE0FFF1F0590F491E02D0994ED
:1017B0000F931F93CF93DF938230910510F482E053
:1017C00090E0E0911C03F0911D0330E020E0B0E0D8
:1017D000A0E0309799F42115310509F44AC0281B7F
:1017E000390B24303105D8F58A819B81611571054B
:1017F00089F1FB0193838283FE0111C040815181F5
:101800000281138148175907E0F04817590799F4E6
:10181000109761F012960C93129713961C933296C0
:10182000CF01DF91CF911F910F91089500931C0379
:1018300010931D03F4CF2115310551F042175307C2
:1018400038F0A901DB019A01BD01DF01F801C1CF28
:10185000EF01F9CF90931D0380931C03CDCFFE01C0
:10186000E20FF31F8193919322503109398328832A
:10187000D7CF20911A0330911B03232B41F42091E1
:101880000C0130910D0130931B0320931A0320911A
:101890000A0130910B012115310541F42DB73EB7F6
:1018A00040910E0150910F01241B350BE0911A035A
:1018B000F0911B03E217F307A0F42E1B3F0B281730
:1018C000390778F0AC014E5F5F4F2417350748F0B9
:1018D0004E0F5F1F50931B0340931A038193919304
:1018E0009FCFF0E0E0E09CCFCF93DF930097E9F04B
:1018F000FC01329713821282A0911C03B0911D0348
:10190000ED0130E020E01097A1F420813181820FB9
:10191000931F20911A0330911B032817390709F0F0
:1019200061C0F0931B03E0931A03DF91CF910895F8
:10193000EA01CE17DF07E8F54A815B819E01411578
:101940005105B1F7E901FB83EA8349915991C40F2D
:10195000D51FEC17FD0761F4808191810296840FF9
:10196000951FE90199838883828193819B838A8370
:10197000F0E0E0E012968D919C9113970097B9F5F5
:101980002D913C911197CD010296820F931F2091CA
:101990001A0330911B032817390739F6309751F590
:1019A00010921D0310921C03B0931B03A0931A0303
:1019B000BCCFD383C28340815181840F951FC81748
:1019C000D90761F44E5F5F4F88819981480F591F95
:1019D000518340838A819B819383828321153105C2
:1019E00009F0B0CFF0931D03E0931C039ECFFD01DF
:1019F000DC01C0CF13821282D7CFB0E0A0E0E3E0D9
:101A0000FDE00C94630A8C01009751F4CB010E9415
:101A1000D80B8C01C801CDB7DEB7E0E10C947F0A8A
:101A2000FC01E60FF71F9C0122503109E217F30772
:101A300008F49DC0D901CD91DC911197C617D70745
:101A400098F0C530D10530F3CE010497861797077B
:101A500008F3C61BD70B2297C193D1936D937C9348
:101A6000CF010E94740CD6CF5B01AC1ABD0A4C01A9
:101A70008C0E9D1EA0911C03B0911D03512C412C76
:101A8000F12CE12C109731F580911A0390911B03F2
:101A90008815990509F05CC04616570608F058C02D
:101AA00080910A0190910B01009741F48DB79EB788
:101AB00040910E0150910F01841B950BE817F90717
:101AC00008F055C0F0931B03E0931A03F9017183EA
:101AD0006083A0CF8D919C91119712966C90129774
:101AE00013967C901397A815B90559F56C0142E03F
:101AF000C40ED11CCA14DB0420F1AC014A195B09E5
:101B0000DA011296159780F06282738251834083C6
:101B1000D9016D937C93E114F10471F0D701139610
:101B2000FC93EE93129776CF22968C0F9D1FF901AE
:101B300091838083F301EFCFF0931D03E0931C03A7
:101B400069CF4816590608F42C017D01D3019ACFBC
:101B5000CB010E94D80B7C01009749F0AE01B8017F
:101B60000E94BA0DC8010E94740C870153CF10E087
:101B700000E050CFFB01DC0102C001900D9241500A
:101B80005040D8F70895FB01DC0101900D92002030
:101B9000E1F70895FB01DC014150504030F08D9198
:101BA0000190801919F40020B9F7881B990B08954A
:101BB000FB01DC014150504048F001900D920020A3
:101BC000C9F701C01D9241505040E0F7089510E060
:101BD000CDE5D0E004C0FE010E94D20B2196CE35A7
:081BE000D107C9F7F894FFCF0B
:101BE8000000A04101000000B44300001E03800073
:101BF80002000300040005000600070008000900B1
:101C08000000000069018900B600B6012701C5007F
:101C180019010D0A006E616E00696E66006F7666C6
:101C280000506173736F3A200056657A65733A20E5
:101C380000446972656374696F6E3A2000416E678B
:101C48006C653A20003D3D3D3D3D3D3D3D3D3D3DC2
:101C58003D3D3D3D3D3D3D3D3D3D00412066616989
:101C68007861206C696D697465206465206F7065A2
:101C78007261C3A7C3A36F20666F6920756C747205
:101C880061706173736164612120506F72206661B5
:101C9800766F722C2061646963696F6E6520756D5B
:101CA8002076616C6F722064656E74726F20646F49
:101CB8007320706172C3A26D6574726F732E0047D2
:101CC80049524152313A20004749524152323A2052
:101CD800004D415855503A20004F2076616C6F7284
:101CE800206C696D697465206D6178696D6F206617
:101CF8006F6920616C74657261646F20636F6D2019
:101D08007375636573736F2E004D41584C4F573A86
:101D180020004F2076616C6F72206C696D69746564
:101D2800206D696E696D6F20666F6920616C7465DE
:101D38007261646F20636F6D207375636573736F71
:021D48002E006B
:00000001FF
