:020000040000FA
:100000000C945E000C9486000C9486000C94860080
:100010000C9486000C9486000C9486000C94860048
:100020000C9486000C9486000C9486000C94860038
:100030000C9486000C9486000C9486000C94860028
:100040000C9440060C9486000C94B0060C948A061E
:100050000C9486000C9486000C9486000C94860008
:100060000C9486000C9486000000000024002700F9
:100070002A0000000000250028002B0004040404CE
:100080000404040402020202020203030303030342
:10009000010204081020408001020408102001021F
:1000A00004081020000000080002010000030407FB
:1000B0000000000000000000E206510A11241FBEEB
:1000C000CFEFD8E0DEBFCDBF23E0A0E7B2E001C0B4
:1000D0001D92AA3BB207E1F712E0A0E0B1E0ECE12B
:1000E000FEE102C005900D92A037B107D9F710E0EC
:1000F000CDE5D0E004C02197FE010E94EC0CCC3588
:10010000D107C9F70E94CE070C94010F0C94000090
:1001100090E0FC01EC55FF4F2491FC01E057FF4FAC
:100120003491FC01E458FF4FE491EE23C9F02223FF
:1001300039F0233001F1A8F4213019F1223029F1EE
:10014000F0E0EE0FFF1FEE58FF4FA591B4918FB76F
:10015000F894EC91611126C030953E233C938FBFFB
:1001600008952730A9F02830C9F0243049F780914C
:1001700080008F7D03C0809180008F778093800006
:10018000DFCF84B58F7784BDDBCF84B58F7DFBCF88
:100190008091B0008F778093B000D2CF8091B00073
:1001A0008F7DF9CF3E2BDACF3FB7F8948091710263
:1001B00090917202A0917302B091740226B5A89B2F
:1001C00005C02F3F19F00196A11DB11D3FBFBA2FE9
:1001D000A92F982F8827BC01CD01620F711D811DA9
:1001E000911D42E0660F771F881F991F4A95D1F72E
:1001F00008958F929F92AF92BF92CF92DF92EF922B
:10020000FF920E94D4004B015C018CE2C82EDD24D9
:10021000D394E12CF12C0E94D400681979098A0941
:100220009B09683E734081059105A8F321E0C21A3D
:10023000D108E108F10888EE880E83E0981EA11C21
:10024000B11CC114D104E104F10429F7FF90EF902F
:10025000DF90CF90BF90AF909F908F9008950895BA
:10026000AF92BF92CF92DF92EF92FF920F931F93C4
:10027000CF93DF936C017B018B01040F151FEB0102
:100280005E01AE18BF08C017D10759F06991D601B9
:10029000ED91FC910190F081E02DC6010995892B2B
:1002A00079F7C501DF91CF911F910F91FF90EF90EA
:1002B000DF90CF90BF90AF900895FC01538D448D97
:1002C000252F30E0842F90E0821B930B541710F001
:1002D000CF96089501970895FC01918D828D98170E
:1002E00061F0A28DAE0FBF2FB11D5D968C91928DE6
:1002F0009F5F9F73928F90E008958FEF9FEF089517
:100300002FB7F8948091750290917602A0917702B0
:10031000B09178022FBF8093830290938402A093C0
:100320008502B09386028BE792E00E946C0197FFF2
:1003300026C02FB7F8948091750290917602A09113
:100340007702B09178022FBF4091830250918402CE
:100350006091850270918602841B950BA60BB70BEA
:1003600040917F02509180026091810270918202DF
:1003700084179507A607B707B0F28FEF9FEF089590
:10038000FC01918D828D981731F0828DE80FF11D5F
:10039000858D90E008958FEF9FEF0895FC01918D7A
:1003A000228D892F90E0805C9F4F821B91098F7373
:1003B000992708958BE792E00E94CE0121E0892BD6
:1003C00009F420E0822F089580E090E0892B29F045
:1003D0000E94DA0181110C9400000895FC01A48DA3
:1003E000A80FB92FB11DA35ABF4F2C91848D90E057
:1003F00001968F739927848FA689B7892C93A0893A
:10040000B1898C91837080648C93938D848D9813C3
:1004100006C00288F389E02D80818F7D8083089556
:10042000EF92FF920F931F93CF93DF93EC0181E044
:10043000888F9B8D8C8D98131AC0E889F9898081EB
:1004400085FF15C09FB7F894EE89FF896083E8891E
:10045000F98980818370806480839FBF81E090E010
:10046000DF91CF911F910F91FF90EF900895F62E9D
:100470000B8D10E00F5F1F4F0F731127E02E8C8D37
:100480008E110CC00FB607FCFACFE889F98980817C
:1004900085FFF5CFCE010E94EE01F1CFEB8DEC0F81
:1004A000FD2FF11DE35AFF4FF0829FB7F8940B8F99
:1004B000EA89FB8980818062CFCFCF93DF93EC0103
:1004C000888D8823B9F0AA89BB89E889F9898C913C
:1004D00085FD03C0808186FD0DC00FB607FCF7CFF8
:1004E0008C9185FFF2CF808185FFEDCFCE010E94F8
:1004F000EE01E9CFDF91CF910895FF920F931F9303
:10050000CF93DF93F62ED42FC22FF801EE0FFF1FEB
:10051000E45FFE4F682F80810E948800F801EE0F93
:10052000FF1FE25FFE4F6F2D80810E948800F8015F
:10053000EE0FFF1FE05FFE4F6D2F80810E9488004D
:10054000000F111FF801EE5EFE4F6C2F8081DF91CE
:10055000CF911F910F91FF900C9488008F929F92E2
:10056000AF92BF92CF92DF92EF92FF920F931F93C1
:10057000CF93DF936C018B01EA012196CC0FDD1F35
:10058000CC0FDD1FFE01EA59FC4F80809180A280D4
:10059000B38020E030E040EE50E4C501B4010E9499
:1005A000C00C18164CF020E030E0A901C501B401E0
:1005B0000E94C90A87FF0FC0CE018A599C4F7C0157
:1005C000B601DD0C880B990B0E94D00AF7016083FD
:1005D000718382839383CA59DC4F688179818A81D0
:1005E0009B810E94910C6830E8F4E62FF0E0E55022
:1005F000FD4F0C94EC0C030307030C036E03710313
:10060000750377037A0320E040E060E003C020E058
:1006100040E061E081E004C020E040E061E080E093
:100620000E947D026091020170910301809104019A
:10063000909105010E94910C6230710548F0660F9F
:10064000771F660F771F65507109CB010197F1F78E
:100650008091790290917A02019690937A02809328
:10066000790264E170E0681B790B072E000C880B9F
:10067000990B0E94D00A4B015C018092020190927A
:100680000301A0920401B0920501609100017091F4
:100690000101072E000C880B990B0E94D00A6B01F8
:1006A0007C01AC019B01C501B4010E94C90A181666
:1006B00044F0C0920201D0920301E0920401F09252
:1006C0000501DF91CF911F910F91FF90EF90DF9087
:1006D000CF90BF90AF909F908F90089520E041E021
:1006E0009DCF20E041E060E09ACF21E0FBCF21E008
:1006F00040E0F9CF21E088CFFC0101900020E9F72C
:100700003197AF01481B590BBC018BE792E00C9469
:1007100030018F929F92AF92BF920F931F93CF930E
:10072000DF93CDB7DEB7A1970FB6F894DEBF0FBE4B
:10073000CDBF19A2423008F44AE08E010F5D1F4F71
:10074000842E912CB12CA12CA50194010E94CA0CDD
:10075000E62FB901CA01EA30F4F4E05DD801EE9366
:100760008D01232B242B252B79F790E080E0109727
:1007700019F0CD010E947C03A1960FB6F894DEBF5C
:100780000FBECDBFDF91CF911F910F91BF90AF9062
:100790009F908F900895E95CE1CFCF93DF930E9403
:1007A0007C03EC018EE391E00E947C038C0F9D1F83
:1007B000DF91CF91089540916403509165034115F5
:1007C000510501F10097F1F0BA018417950708F47B
:1007D000BC018091600390916103461B570B5093BD
:1007E000650340936403680F791F0E94F20EE09145
:1007F0006003F09161038091640390916503E80FB9
:10080000F91F10820895FC018091600390916103AB
:10081000009761F0608171816115710539F0448143
:1008200055810E94E40E21E0892B09F020E0822FFF
:100830000895CF93DF93EC0188819981009711F09F
:100840000E948E0D198218821D821C821B821A82C0
:10085000DF91CF910895FC0180819181009711F083
:100860000C948E0D08950F931F93CF93DF93EC019B
:1008700088819981009759F02A813B812617370793
:1008800030F081E0DF91CF911F910F9108958B019E
:100890006F5F7F4F0E94170E009759F099838883EE
:1008A0001B830A832C813D81232B59F7FC01108285
:1008B000E8CF80E0E7CFEF92FF920F931F93CF93A3
:1008C000DF936115710541F480E0DF91CF911F91B5
:1008D0000F91FF90EF90089541155105B1F07B0104
:1008E000EC010C811D81040F151FB8010E94330417
:1008F000882351F3288139818C819D81B701820F32
:10090000931F0E94DD0E1D830C8381E0DECFEF92EA
:10091000FF920F931F93CF93DF93EC017B0119821A
:1009200018821B821A821D821C82FB01019000200A
:10093000E9F731978F01061B170BB8010E943304AA
:10094000811109C0CE01DF91CF911F910F91FF90CE
:10095000EF900C9419041D830C83B7018881998151
:10096000DF91CF911F910F91FF90EF900C94DD0ECE
:100970008F929F92AF92BF92CF92DF92EF92FF92AF
:100980000F931F93CF93DF93CDB7DEB72F970FB69B
:10099000F894DEBF0FBECDBFC82ED12C460121E09A
:1009A000821A9108E62EF12C9401220F331F2E0D8E
:1009B0003F1D46E0429FC001439F900D1124885E79
:1009C0009C4F4091640350916503FC012481358163
:1009D0004217530708F4A3C0B62E0E9403048823CD
:1009E00009F49DC089E090E08E199F090E94DB0305
:1009F0008091600390916103009709F4A3C00E9465
:100A0000630AF3E0EF0EF11C25E0289D8001299D8B
:100A1000100D1124E00EF11EEE0CFF1CEE0CFF1C5D
:100A200087010A591C4F0E94D00AF8016083718324
:100A3000828393831B861A861D861C861F861E86CC
:100A40004AE08E010F5F1F4FB801C6010E949F0A46
:100A5000F80101900020E9F731976F01C01AD10A1F
:100A6000B601CE010A960E94330481116FC0CE01F7
:100A70000A960E94190461E471E0C8010E9487048B
:100A80004E855F856A857B85C8010E945B04811164
:100A900003C0C8010E94190443E050E068E471E01B
:100AA000C8010E945B04811103C0C8010E9419049F
:100AB0004D815E8169817A818BE792E00E943001ED
:100AC000C8010E942B04CE010A960E942B048CE4DC
:100AD00091E00E947C03F1E08CE591E0BF1611F0FB
:100AE00083E691E00E947C038AE691E00E94CD03B8
:100AF000F701EA59FC4FC080D180E280F380A70162
:100B00009601C701B6010E94C50C882339F185E81A
:100B100091E00E947C038EE391E00E947C032F967B
:100B20000FB6F894DEBF0FBECDBFDF91CF911F91FE
:100B30000F91FF90EF90DF90CF90BF90AF909F907C
:100B40008F90089560E070E0CB015BCFDF86CE86AA
:100B5000B8018A859B850E94DD0E8DCF4601570125
:100B6000E894B7F82FEF3FEF4FE75FE7C501B40117
:100B70000E94C50C81110DC02FEF3FEF4FE75FE7DB
:100B8000C501B4010E94C90A18161CF489E891E055
:100B9000C0CF2FEF3FEF4FE75FE4C701B6010E94E0
:100BA000C00C18161CF48DE891E0B3CF2FEF3FEF87
:100BB0004FE75FECC701B6010E94C90A87FDF3CF7A
:100BC00020E030E0A901C701B6010E94C90A87FFF1
:100BD00009C06DE28BE792E00E941002F7FAF094F0
:100BE000F7F8F0942AE037ED43EA5BE3C701B6017A
:100BF0000E94250C4B015C010E94910C6B017C0151
:100C00000E94CE0A9B01AC01C501B4010E94240CD4
:100C10004B015C014AE0C701B6010E9489036EE204
:100C20008BE792E00E94100220E030E040E251E4C5
:100C3000C501B4010E942F0B4B015C010E94910C75
:100C40006B01F12CE12C4AE0C701B6010E94890337
:100C5000C701B6010E94CE0A9B01AC01C501B401D7
:100C60000E94240C20E030E040E251E40E942F0B6F
:100C70000E94910C90E080E04AE00E9489034BCFF3
:100C80001F920F920FB60F9211242F933F938F93C1
:100C90009F93AF93BF938091750290917602A0913C
:100CA0007702B09178023091700223E0230F2D3744
:100CB00058F50196A11DB11D209370028093750215
:100CC00090937602A0937702B0937802809171029C
:100CD00090917202A0917302B09174020196A11DCD
:100CE000B11D8093710290937202A0937302B0932E
:100CF0007402BF91AF919F918F913F912F910F906F
:100D00000FBE0F901F90189526E8230F0296A11D85
:100D1000B11DD2CF1F920F920FB60F9211242F93B5
:100D20003F934F935F936F937F938F939F93AF9373
:100D3000BF93EF93FF938BE792E00E94EE01FF9148
:100D4000EF91BF91AF919F918F917F916F915F9143
:100D50004F913F912F910F900FBE0F901F901895BC
:100D60001F920F920FB60F9211242F938F939F9380
:100D7000EF93FF93E0918B02F0918C028081E091E0
:100D80009102F091920282FD1BC0908180919402A9
:100D90008F5F8F7320919502821741F0E09194024A
:100DA000F0E0E558FD4F958F80939402FF91EF910D
:100DB0009F918F912F910F900FBE0F901F901895BC
:100DC0008081F4CF0F931F93EBE7F2E0138212823E
:100DD00088EE93E0A0E0B0E084839583A683B78398
:100DE00080E391E09183808385EC90E09587848710
:100DF00084EC90E09787868780EC90E0918B808BE5
:100E000081EC90E0938B828B82EC90E0958B848BCD
:100E100086EC90E0978B868B118E128E138E148E3B
:100E2000E6E6F3E0108211821282138200E010E005
:100E300020E83FE3048315832683378310861186D9
:100E40001286138640E050E064EB73EC44875587CC
:100E50006687778780E090E0A4EBB3E4808B918B8A
:100E6000A28BB38B148A158A168A178A008F118F6A
:100E7000228F338F148E158E168E178E40A351A39A
:100E800062A373A384A395A3A6A3B7A310A611A6D8
:100E900012A613A604A715A726A737A710AA11AA5A
:100EA00012AA13AA44AB55AB66AB77AB80AF91AF38
:100EB000A2AFB3AF14AE15AE16AE17AE0093A60335
:100EC0001093A7032093A8033093A9031092AA03B9
:100ED0001092AB031092AC031092AD034093AE039B
:100EE0005093AF036093B0037093B1038093B20348
:100EF0009093B303A093B403B093B50360E471E09F
:100F000080E693E00E94870461E971E088E193E064
:100F10000E9487046BE971E08EE193E00E948704F0
:100F200064EA71E084E293E00E9487046EEA71E073
:100F30008AE293E00E94870467EB71E080E393E02C
:100F40000E94870461EC71E086E393E00E948704CD
:100F50006AEC71E08CE393E00E94870464ED71E039
:100F600082E493E00E9487046DED71E088E493E0F1
:100F70000E94870466EE71E08EE493E00E9487048D
:100F80006FEE71E084E593E00E94870468EF71E002
:100F90008AE593E01F910F910C948704CF93DF9320
:100FA000CDB7DEB72C970FB6F894DEBF0FBECDBF1E
:100FB000789484B5826084BD84B5816084BD85B534
:100FC000826085BD85B5816085BD80916E00816040
:100FD00080936E00109281008091810082608093E6
:100FE00081008091810081608093810080918000E8
:100FF0008160809380008091B10084608093B10013
:101000008091B00081608093B00080917A0084600C
:1010100080937A0080917A00826080937A00809138
:101020007A00816080937A0080917A008068809352
:101030007A001092C100E0918B02F0918C0282E064
:101040008083E0918702F09188021082E09189020A
:10105000F0918A028FEC808310929302E0918F02CC
:10106000F091900286E08083E0918D02F0918E02F3
:10107000808180618083E0918D02F0918E02808179
:1010800088608083E0918D02F0918E02808180687B
:101090008083E0918D02F0918E0280818F7D80832C
:1010A000ACE0B1E02CE231E08D919D919927FC01FB
:1010B000E057FF4F649184589F4FFC01849188232F
:1010C000A1F090E0880F991FFC01E859FF4F45916E
:1010D0005491FC01EE58FF4F859194918FB7F8948D
:1010E000FA019081962B90838FBF2A173B07E1F678
:1010F0008BE792E00E94CE01892B09F4ACC160E439
:1011000071E0CE0101960E9487040E94800197FD44
:101110000FC08D30910561F08F83188641E050E05B
:10112000BE01695F7F4FCE0101960E945B04EDCF47
:101130008091600390916103009709F4C8C06981B0
:101140007A816115710509F4C0C040916203509124
:1011500063032D813E814217530708F4B6C00E94F5
:10116000DD0E8D819E8190936503809364031E82C2
:101170001D82CE0101960E942B0428E133E03A87BC
:10118000298706E613E022242394312C209164035E
:1011900030916503E985FA8584A995A9281739074F
:1011A00008F413C1CF01C0960E940304882309F4F8
:1011B0000CC1F5E0F29DC001F39D900D11249C013E
:1011C000255031093C872B8788E090E00E94DB03A3
:1011D0008091600390916103009709F48FC00E9491
:1011E000630A0E94D00A4B015C01F801808291825F
:1011F000A282B38226E636E646E65FE30E942F0B24
:101200002B013C01F80120853185428553850E94E0
:10121000250C6B017C01F801C086D186E286F3863D
:1012200024853585468557850E94C00C87FD20C1E1
:10123000F8012089318942895389C701B6010E948A
:10124000C90A18160CF414C17101F1E0EF1AF0ECA0
:10125000FF0AEE0CFF1CEE0CFF1C20E030E0A901A1
:10126000C501B4010E94C00C87FD4CC0D12CC12C1B
:10127000B6010D2C000C880B990B0E94D00AF801C6
:1012800020813181428153810E94C90A87FF3AC07F
:101290004B855C85B70190E080E00E94AE020E9421
:1012A000F900FFEFCF1ADF0A20E030E040E85FE30B
:1012B000F80164817581868197810E94250CF8016F
:1012C0006483758386839783D3CF0E948E0D898133
:1012D0009A8190936103809360038B819C819093AA
:1012E0006303809362038D819E8190936503809355
:1012F00064031A8219821C821B8239CF60E070E07D
:10130000CB016FCF20E030E0A901F801608171814D
:10131000828193810E94C90A87FF4FC020E030E09C
:1013200040E050E4F80164817581868197810E94D4
:10133000240CF8016483758386839783D12CC12C98
:10134000B6010D2C000C880B990B0E94D00AF801F5
:1013500020813181428153810E94C00C1816ECF427
:101360004B855C85B70187E090E00E94AE020E9449
:10137000F900F1E0CF1AD10820E030E040E85FE367
:10138000F80164817581868197810E94240CF8019F
:101390006483758386839783D3CF20E030E040E079
:1013A00050E4F80164817581868197810E94250C43
:1013B000F801648375838683978381E092E00E94BD
:1013C000CD0310927A021092790260E0822D0E9481
:1013D000B80461E0822D0E94B804FFEF2F1A3F0A83
:1013E00029853A852A5F3F4F3A8729870C5E1F4F30
:1013F00035E02316310409F0C9CE67E672E0CE016C
:1014000001960E94870420916403309165038D81C9
:101410009E8110E02817390728F0CE0101960E941E
:101420000304182FCE0101960E942B04112399F07A
:1014300087E090E00E94DB0380916003909161035C
:10144000009721F10E94630A633071051CF17093CB
:10145000010160930001E0E0F0E0EF2B09F448CED9
:101460000E94DA01882309F443CE0E94000040CE96
:10147000A3019201C701B6010E94240CF801608704
:1014800071878287938783E092E099CF60E070E074
:10149000CB01DACF83E090E09093010180930001CB
:1014A000DACFCF93DF93C0E6D3E02697CE010E9438
:1014B0002B0483E0C831D807C1F780E693E0DF91C1
:1014C000CF910C942B041F93FC0199278827BC0112
:1014D000E89411911032E9F3193010F01E30C8F37E
:1014E0001B3251F01D3249F4689406C00E948A0AEA
:1014F000610F711D811D911D119110531A30B0F3B0
:101500003EF490958095709561957F4F8F4F9F4FDA
:101510001F910895592F482F372F262F660F771FB9
:10152000881F991F660F771F881F991F620F731FEF
:10153000841F951F660F771F881F991F0895BB276B
:10154000FB015527AA27880F991FAA1FA41710F07F
:10155000A41B83955051B9F7A05DAA3308F0A95D8B
:10156000A193009779F7B111B1931192CB010C942B
:10157000B90ADC01FC01672F71917723E1F73297FB
:1015800004C07C916D9370836291AE17BF07C8F35E
:1015900008950E940B0B08F481E00895E89409C0B7
:1015A00097FB3EF490958095709561957F4F8F4F96
:1015B0009F4F9923A9F0F92F96E9BB279395F695AC
:1015C000879577956795B795F111F8CFFAF4BB0F2A
:1015D00011F460FF1BC06F5F7F4F8F4F9F4F16C08E
:1015E000882311F096E911C0772321F09EE8872F18
:1015F000762F05C0662371F096E8862F70E060E0D4
:101600002AF09A95660F771F881FDAF7880F96954C
:10161000879597F90895990F0008550FAA0BE0E8F0
:10162000FEEF16161706E807F907C0F012161306A4
:10163000E407F50798F0621B730B840B950B39F4E4
:101640000A2661F0232B242B252B21F408950A264A
:1016500009F4A140A6958FEF811D811D08950E9478
:10166000420B0C94B30B0E94A50B38F00E94AC0BFC
:1016700020F0952311F00C949C0B0C94A20B1124D8
:101680000C94E70B0E94C40B70F3959FC1F3950F68
:1016900050E0551F629FF001729FBB27F00DB11DF6
:1016A000639FAA27F00DB11DAA1F649F6627B00D86
:1016B000A11D661F829F2227B00DA11D621F739F6F
:1016C000B00DA11D621F839FA00D611D221F749F7D
:1016D0003327A00D611D231F849F600D211D822FC4
:1016E000762F6A2F11249F5750409AF0F1F08823EB
:1016F0004AF0EE0FFF1FBB1F661F771F881F915018
:101700005040A9F79E3F510580F00C949C0B0C941F
:10171000E70B5F3FE4F3983ED4F3869577956795A2
:10172000B795F795E7959F5FC1F7FE2B880F911D41
:101730009695879597F9089597F99F6780E870E0E7
:1017400060E008959FEF80EC089500240A94161637
:10175000170618060906089500240A94121613069F
:10176000140605060895092E0394000C11F488232D
:1017700052F0BB0F40F4BF2B11F460FF04C06F5F49
:101780007F4F8F4F9F4F089557FD9058440F551F1F
:1017900059F05F3F71F04795880F97FB991F61F0F3
:1017A0009F3F79F087950895121613061406551F6A
:1017B000F2CF4695F1DF08C0161617061806991FD6
:1017C000F1CF86957105610508940895E894BB27CB
:1017D00066277727CB0197F908952F923F924F9272
:1017E0005F926F927F928F929F92AF92BF92CF92B1
:1017F000DF92EF92FF920F931F93CF93DF93CDB7BA
:10180000DEB7CA1BDB0B0FB6F894DEBF0FBECDBF31
:1018100009942A88398848885F846E847D848C8402
:101820009B84AA84B984C884DF80EE80FD800C810B
:101830001B81AA81B981CE0FD11D0FB6F894DEBFEE
:101840000FBECDBFED0108955058BB27AA270E94B7
:101850003C0C0C94B30B0E94A50B38F00E94AC0B0F
:1018600020F039F49F3F19F426F40C94A20B0EF4E7
:10187000E095E7FB0C949C0BE92F0E94C40B58F3F6
:10188000BA17620773078407950720F079F4A6F565
:101890000C94E60B0EF4E0950B2EBA2FA02D0B0145
:1018A000B90190010C01CA01A0011124FF27591BA5
:1018B00099F0593F50F4503E68F11A16F040A22FAB
:1018C000232F342F4427585FF3CF4695379527951C
:1018D000A795F0405395C9F77EF41F16BA0B620B1B
:1018E000730B840BBAF09150A1F0FF0FBB1F661F62
:1018F000771F881FC2F70EC0BA0F621F731F841FA5
:1019000048F4879577956795B795F7959E3F08F0CA
:10191000B0CF9395880F08F09927EE0F979587958C
:1019200008950E94CC0B88F09F5798F0B92F992703
:10193000B751B0F0E1F0660F771F881F991F1AF0BA
:10194000BA95C9F714C0B13091F00E94E60BB1E02E
:1019500008950C94E60B672F782F8827B85F39F02D
:10196000B93FCCF3869577956795B395D9F73EF453
:1019700090958095709561957F4F8F4F9F4F0895FB
:101980000E940B0B08F48FEF08950E940B0B880B3D
:10199000990B0895A1E21A2EAA1BBB1BFD010DC0D5
:1019A000AA1FBB1FEE1FFF1FA217B307E407F5070F
:1019B00020F0A21BB30BE40BF50B661F771F881FEB
:1019C000991F1A9469F760957095809590959B0181
:1019D000AC01BD01CF010895EE0FFF1F0590F491FA
:1019E000E02D09940F931F93CF93DF9382309105DD
:1019F00010F482E090E0E091B803F091B90330E098
:101A000020E0B0E0A0E0309799F42115310509F409
:101A10004AC0281B390B24303105D8F58A819B81B7
:101A20006115710589F1FB0193838283FE0111C069
:101A3000408151810281138148175907E0F048170E
:101A4000590799F4109761F012960C931297139618
:101A50001C933296CF01DF91CF911F910F91089582
:101A60000093B8031093B903F4CF2115310551F059
:101A70004217530738F0A901DB019A01BD01DF01CC
:101A8000F801C1CFEF01F9CF9093B9038093B80368
:101A9000CDCFFE01E20FF31F8193919322503109C4
:101AA00039832883D7CF2091B6033091B703232BF6
:101AB00041F420910801309109013093B70320933C
:101AC000B60320910601309107012115310541F43B
:101AD0002DB73EB740910A0150910B01241B350BE5
:101AE000E091B603F091B703E217F307A0F42E1BC1
:101AF0003F0B2817390778F0AC014E5F5F4F241772
:101B0000350748F04E0F5F1F5093B7034093B6035D
:101B1000819391939FCFF0E0E0E09CCFCF93DF9350
:101B20000097E9F0FC01329713821282A091B8036A
:101B3000B091B903ED0130E020E01097A1F42081CD
:101B40003181820F931F2091B6033091B70328177C
:101B5000390709F061C0F093B703E093B603DF9152
:101B6000CF910895EA01CE17DF07E8F54A815B813E
:101B70009E0141155105B1F7E901FB83EA834991C3
:101B80005991C40FD51FEC17FD0761F48081918135
:101B90000296840F951FE90199838883828193813E
:101BA0009B838A83F0E0E0E012968D919C911397DD
:101BB0000097B9F52D913C911197CD010296820FB6
:101BC000931F2091B6033091B7032817390739F6D0
:101BD000309751F51092B9031092B803B093B70340
:101BE000A093B603BCCFD383C28340815181840FBD
:101BF000951FC817D90761F44E5F5F4F888199819F
:101C0000480F591F518340838A819B81938382832C
:101C10002115310509F0B0CFF093B903E093B80373
:101C20009ECFFD01DC01C0CF13821282D7CFB0E07E
:101C3000A0E0EDE1FEE00C94EF0B8C01009751F475
:101C4000CB010E94F20C8C01C801CDB7DEB7E0E1F8
:101C50000C940B0CFC01E60FF71F9C01225031097C
:101C6000E217F30708F49DC0D901CD91DC911197DB
:101C7000C617D70798F0C530D10530F3CE010497C9
:101C80008617970708F3C61BD70B2297C193D193EA
:101C90006D937C93CF010E948E0DD6CF5B01AC1A61
:101CA000BD0A4C018C0E9D1EA091B803B091B903E2
:101CB000512C412CF12CE12C109731F58091B60379
:101CC0009091B7038815990509F05CC04616570630
:101CD00008F058C08091060190910701009741F4E7
:101CE0008DB79EB740910A0150910B01841B950B53
:101CF000E817F90708F055C0F093B703E093B6036F
:101D0000F90171836083A0CF8D919C9111971296F8
:101D10006C90129713967C901397A815B90559F5F6
:101D20006C0142E0C40ED11CCA14DB0420F1AC01EA
:101D30004A195B09DA011296159780F06282738264
:101D400051834083D9016D937C93E114F10471F0C8
:101D5000D7011396FC93EE93129776CF22968C0FB1
:101D60009D1FF90191838083F301EFCFF093B903B5
:101D7000E093B80369CF4816590608F42C017D0199
:101D8000D3019ACFCB010E94F20C7C01009749F05D
:101D9000AE01B8010E94D40EC8010E948E0D8701C9
:101DA00053CF10E000E050CFFB01DC0102C00190F6
:101DB0000D9241505040D8F70895FB01DC0101908D
:101DC0000D920020E1F70895FB01DC0141505040E5
:101DD00030F08D910190801919F40020B9F7881B1B
:101DE000990B0895FB01DC014150504048F00190EF
:101DF0000D920020C9F701C01D9241505040E0F7FC
:101E0000089510E0CDE5D0E004C0FE010E94EC0C86
:101E10002196CE35D107C9F7F894FFCF0A0000000C
:101E2000A0410000BA038000020003000400050086
:101E300006000700080009000A000B000C000D0056
:101E40000E000F0010001100000000001002300111
:101E50005D015D02CE016C01C0010D0A004D6F7481
:101E60006F725B005D3A20006F2076616C6F7220AC
:101E70006C696D69746520006D6178696D6F006DC6
:101E8000696E696D6F0020666F6920616C746572A0
:101E900061646F20636F6D207375636573736F2E5C
:101EA000006E616E00696E66006F7666004D415887
:101EB0004C4F57313A20004D41585550313A20008F
:101EC0004D41584C4F57323A20004D4158555032F1
:101ED0003A20004D41584C4F57333A20004D41585D
:101EE0005550333A20004D41584C4F57343A20005A
:101EF0004D41585550343A20004749524152313AE9
:101F000020004749524152323A200047495241523B
:101F1000333A20004749524152343A20007C004174
:101F2000206661697861206C696D697465206465FB
:101F3000206F70657261C3A7C3A36F20666F6920AD
:101F4000756C747261706173736164612120506F8C
:101F500072206661766F722C2061646963696F6EAE
:101F60006520756D2076616C6F722064656E747289
:101F70006F20646F7320706172C3A26D6574726F9D
:0C1F8000732E0054454D504F3A200000D5
:107E0000112484B714BE81FFF0D085E080938100F7
:107E100082E08093C00088E18093C10086E0809377
:107E2000C20080E18093C4008EE0C9D0259A86E02C
:107E300020E33CEF91E0309385002093840096BBD3
:107E4000B09BFECF1D9AA8958150A9F7CC24DD24C4
:107E500088248394B5E0AB2EA1E19A2EF3E0BF2EE7
:107E6000A2D0813461F49FD0082FAFD0023811F036
:107E7000013811F484E001C083E08DD089C08234E0
:107E800011F484E103C0853419F485E0A6D080C0E4
:107E9000853579F488D0E82EFF2485D0082F10E0AE
:107EA000102F00270E291F29000F111F8ED06801E7
:107EB0006FC0863521F484E090D080E0DECF843638
:107EC00009F040C070D06FD0082F6DD080E0C81688
:107ED00080E7D80618F4F601B7BEE895C0E0D1E017
:107EE00062D089930C17E1F7F0E0CF16F0E7DF06D8
:107EF00018F0F601B7BEE89568D007B600FCFDCFD4
:107F0000A601A0E0B1E02C9130E011968C91119780
:107F100090E0982F8827822B932B1296FA010C0160
:107F200087BEE89511244E5F5F4FF1E0A038BF0790
:107F300051F7F601A7BEE89507B600FCFDCF97BE46
:107F4000E89526C08437B1F42ED02DD0F82E2BD052
:107F50003CD0F601EF2C8F010F5F1F4F84911BD097
:107F6000EA94F801C1F70894C11CD11CFA94CF0C13
:107F7000D11C0EC0853739F428D08EE10CD085E9AC
:107F80000AD08FE07ACF813511F488E018D01DD067
:107F900080E101D065CF982F8091C00085FFFCCF94
:107FA0009093C60008958091C00087FFFCCF809118
:107FB000C00084FD01C0A8958091C6000895E0E648
:107FC000F0E098E1908380830895EDDF803219F02E
:107FD00088E0F5DFFFCF84E1DECF1F93182FE3DFCA
:107FE0001150E9F7F2DF1F91089580E0E8DFEE27F6
:047FF000FF270994CA
:027FFE00040479
:00000001FF
