:100000000C945E000C9486000C9486000C94860080
:100010000C9486000C9486000C9486000C94860048
:100020000C9486000C9486000C9486000C94860038
:100030000C9486000C9486000C9486000C94860028
:100040000C9427060C9486000C9497060C94710669
:100050000C9486000C9486000C9486000C94860008
:100060000C9486000C9486000000000024002700F9
:100070002A0000000000250028002B0004040404CE
:100080000404040402020202020203030303030342
:10009000010204081020408001020408102001021F
:1000A00004081020000000080002010000030407FB
:1000B0000000000000000000C906280A11241FBE2D
:1000C000CFEFD8E0DEBFCDBF23E0AEE6B2E001C0A7
:1000D0001D92A83BB207E1F712E0A0E0B1E0EAEC24
:1000E000FDE102C005900D92AE36B107D9F710E0E0
:1000F000CDE5D0E004C02197FE010E94C30CCC35B1
:10010000D107C9F70E94B5070C94D80E0C940000D3
:1001100090E0FC01EC55FF4F2491FC01E057FF4FAC
:100120003491FC01E458FF4FE491EE23C9F02223FF
:1001300039F0233001F1A8F4213019F1223029F1EE
:10014000F0E0EE0FFF1FEE58FF4FA591B4918FB76F
:10015000F894EC91611126C030953E233C938FBFFB
:1001600008952730A9F02830C9F0243049F780914C
:1001700080008F7D03C0809180008F778093800006
:10018000DFCF84B58F7784BDDBCF84B58F7DFBCF88
:100190008091B0008F778093B000D2CF8091B00073
:1001A0008F7DF9CF3E2BDACF3FB7F89480916F0265
:1001B00090917002A0917102B091720226B5A89B35
:1001C00005C02F3F19F00196A11DB11D3FBFBA2FE9
:1001D000A92F982F8827BC01CD01620F711D811DA9
:1001E000911D42E0660F771F881F991F4A95D1F72E
:1001F00008958F929F92AF92BF92CF92DF92EF922B
:10020000FF920E94D4004B015C018CE2C82EDD24D9
:10021000D394E12CF12C0E94D400681979098A0941
:100220009B09683E734081059105A8F321E0C21A3D
:10023000D108E108F10888EE880E83E0981EA11C21
:10024000B11CC114D104E104F10429F7FF90EF902F
:10025000DF90CF90BF90AF909F908F9008950895BA
:10026000AF92BF92CF92DF92EF92FF920F931F93C4
:10027000CF93DF936C017B018B01040F151FEB0102
:100280005E01AE18BF08C017D10759F06991D601B9
:10029000ED91FC910190F081E02DC6010995892B2B
:1002A00079F7C501DF91CF911F910F91FF90EF90EA
:1002B000DF90CF90BF90AF900895FC01538D448D97
:1002C000252F30E0842F90E0821B930B541710F001
:1002D000CF96089501970895FC01918D828D98170E
:1002E00061F0A28DAE0FBF2FB11D5D968C91928DE6
:1002F0009F5F9F73928F90E008958FEF9FEF089517
:100300002FB7F8948091730290917402A0917502B6
:10031000B09176022FBF8093810290938202A093C6
:100320008302B093840289E792E00E946C0197FFF8
:1003300026C02FB7F8948091730290917402A09117
:100340007502B09176022FBF4091810250918202D6
:100350006091830270918402841B950BA60BB70BEE
:1003600040917D0250917E0260917F0270918002E7
:1003700084179507A607B707B0F28FEF9FEF089590
:10038000FC01918D828D981731F0828DE80FF11D5F
:10039000858D90E008958FEF9FEF0895FC01918D7A
:1003A000228D892F90E0805C9F4F821B91098F7373
:1003B0009927089589E792E00E94CE0121E0892BD8
:1003C00009F420E0822F089580E090E0892B29F045
:1003D0000E94DA0181110C9400000895FC01A48DA3
:1003E000A80FB92FB11DA35ABF4F2C91848D90E057
:1003F00001968F739927848FA689B7892C93A0893A
:10040000B1898C91837080648C93938D848D9813C3
:1004100006C00288F389E02D80818F7D8083089556
:10042000EF92FF920F931F93CF93DF93EC0181E044
:10043000888F9B8D8C8D98131AC0E889F9898081EB
:1004400085FF15C09FB7F894EE89FF896083E8891E
:10045000F98980818370806480839FBF81E090E010
:10046000DF91CF911F910F91FF90EF900895F62E9D
:100470000B8D10E00F5F1F4F0F731127E02E8C8D37
:100480008E110CC00FB607FCFACFE889F98980817C
:1004900085FFF5CFCE010E94EE01F1CFEB8DEC0F81
:1004A000FD2FF11DE35AFF4FF0829FB7F8940B8F99
:1004B000EA89FB8980818062CFCFCF93DF93EC0103
:1004C000888D8823B9F0AA89BB89E889F9898C913C
:1004D00085FD03C0808186FD0DC00FB607FCF7CFF8
:1004E0008C9185FFF2CF808185FFEDCFCE010E94F8
:1004F000EE01E9CFDF91CF910895FF920F931F9303
:10050000CF93DF93F62ED42FC22FF801EE0FFF1FEB
:10051000E45FFE4F682F80810E948800F801EE0F93
:10052000FF1FE25FFE4F6F2D80810E948800F8015F
:10053000EE0FFF1FE05FFE4F6D2F80810E9488004D
:10054000000F111FF801EE5EFE4F6C2F8081DF91CE
:10055000CF911F910F91FF900C9488008F929F92E2
:10056000AF92BF92CF92DF92EF92FF920F931F93C1
:10057000CF93DF936C018B01EA012196CC0FDD1F35
:10058000CC0FDD1FFE01EC59FC4F80809180A280D2
:10059000B38020E030E040EE50E4C501B4010E9499
:1005A000970C18164CF020E030E0A901C501B40109
:1005B0000E94A00A87FF0FC0CE018C599C4F7C017E
:1005C000B601DD0C880B990B0E94A70AF701608326
:1005D000718382839383CC59DC4F688179818A81CE
:1005E0009B810E94680C6830E8F4E62FF0E0E5504B
:1005F000FD4F0C94C30C030307030C0358035B0368
:100600005F036103640320E040E060E003C020E09A
:1006100040E061E081E004C020E040E061E080E093
:100620000E947D026091020170910301809104019A
:10063000909105010E94680C6230710548F0660FC8
:10064000771F660F771F65507109CB010197F1F78E
:10065000809177029091780201969093780280932E
:100660007702209100013091010169E170E0681B7F
:10067000790B621773070CF4B901072E000C880B75
:10068000990B0E94A70A6093020170930301809363
:10069000040190930501DF91CF911F910F91FF907D
:1006A000EF90DF90CF90BF90AF909F908F90089584
:1006B00020E041E0B3CF20E041E060E0B0CF21E0B6
:1006C000FBCF21E040E0F9CF21E09ECFFC0101907B
:1006D0000020E9F73197AF01481B590BBC0189E7AE
:1006E00092E00C9430018F929F92AF92BF920F9341
:1006F0001F93CF93DF93CDB7DEB7A1970FB6F894D2
:10070000DEBF0FBECDBF19A2423008F44AE08E0111
:100710000F5D1F4F842E912CB12CA12CA5019401AB
:100720000E94A10CE62FB901CA01EA30F4F4E05DA1
:10073000D801EE938D01232B242B252B79F790E004
:1007400080E0109719F0CD010E946603A1960FB6C4
:10075000F894DEBF0FBECDBFDF91CF911F910F91F7
:10076000BF90AF909F908F900895E95CE1CFCF93B9
:10077000DF930E946603EC018EE391E00E94660322
:100780008C0F9D1FDF91CF91089580915E03909112
:100790005F03009711F00C943A0A60E070E0CB011F
:1007A000089540916203509163034115510501F191
:1007B0000097F1F0BA018417950708F4BC01809105
:1007C0005E0390915F03461B570B50936303409366
:1007D0006203680F791F0E94C90EE0915E03F091D9
:1007E0005F038091620390916303E80FF91F108209
:1007F0000895FC0180915E0390915F03009761F082
:10080000608171816115710539F0448155810E94C3
:10081000BB0E21E0892B09F020E0822F0895CF93B1
:10082000DF93EC0188819981009711F00E94650D9A
:10083000198218821D821C821B821A82DF91CF913D
:100840000895FC0180819181009711F00C94650D51
:1008500008950F931F93CF93DF93EC0188819981C3
:10086000009759F02A813B812617370730F081E045
:10087000DF91CF911F910F9108958B016F5F7F4F93
:100880000E94EE0D009759F0998388831B830A8399
:100890002C813D81232B59F7FC011082E8CF80E0A9
:1008A000E7CFEF92FF920F931F93CF93DF936115E2
:1008B000710541F480E0DF91CF911F910F91FF907E
:1008C000EF90089541155105B1F07B01EC010C81C9
:1008D0001D81040F151FB8010E942904882351F3BC
:1008E000288139818C819D81B701820F931F0E94DD
:1008F000B40E1D830C8381E0DECFEF92FF920F9345
:100900001F93CF93DF93EC017B01198218821B8226
:100910001A821D821C82FB0101900020E9F73197A9
:100920008F01061B170BB8010E942904811109C011
:10093000CE01DF91CF911F910F91FF90EF900C941A
:100940000F041D830C83B70188819981DF91CF91BA
:100950001F910F91FF90EF900C94B40E8F929F9285
:10096000AF92BF92CF92DF92EF92FF920F931F93BD
:10097000CF93DF93CDB7DEB72F970FB6F894DEBFD6
:100980000FBECDBFC82ED12C460121E0821A91089E
:10099000E62EF12C9401220F331F2E0D3F1D46E051
:1009A000429FC001439F900D11248A5E9C4F40914D
:1009B000620350916303FC01248135814217530780
:1009C00008F498C0B62E0E94F903882309F492C057
:1009D00089E090E08E199F090E94D1030E94C5030F
:1009E000F3E0EF0EF11C25E0289D8001299D100DFC
:1009F0001124E00EF11EEE0CFF1CEE0CFF1C870113
:100A00000C591C4F0E94A70AF801608371838283EE
:100A100093831B861A861D861C861F861E864AE0C7
:100A20008E010F5F1F4FB801C6010E94760AF801C0
:100A300001900020E9F731976F01C01AD10AB60181
:100A4000CE010A960E942904811167C0CE010A9640
:100A50000E940F0461E471E0C8010E947D044E858C
:100A60005F856A857B85C8010E945104811103C09E
:100A7000C8010E940F0442E150E068E471E0C8013F
:100A80000E945104811103C0C8010E940F044D81CE
:100A90005E8169817A8189E792E00E943001C80114
:100AA0000E942104CE010A960E942104F1E08BE508
:100AB00091E0BF1611F082E691E00E94660389E69C
:100AC00091E00E94B703F701EC59FC4FC080D18040
:100AD000E280F380A7019601C701B6010E949C0C39
:100AE000882319F184E891E00E9466038EE391E087
:100AF0000E9466032F960FB6F894DEBF0FBECDBFDF
:100B0000DF91CF911F910F91FF90EF90DF90CF90E9
:100B1000BF90AF909F908F900895DF86CE86B801EA
:100B20008A859B850E94B40E95CF46015701E894B3
:100B3000B7F82FEF3FEF4FE75FE7C501B4010E9421
:100B40009C0C81110DC02FEF3FEF4FE75FE7C50110
:100B5000B4010E94A00A18161CF488E891E0C4CFE2
:100B60002FEF3FEF4FE75FE4C701B6010E94970CFC
:100B700018161CF48CE891E0B7CF2FEF3FEF4FE74A
:100B80005FECC701B6010E94A00A87FDF3CF20E009
:100B900030E0A901C701B6010E94A00A87FF09C081
:100BA0006DE289E792E00E941002F7FAF094F7F8FC
:100BB000F0942AE037ED43EA5BE3C701B6010E94F7
:100BC000FC0B4B015C010E94680C6B017C010E94D4
:100BD000A50A9B01AC01C501B4010E94FB0B4B01AE
:100BE0005C014AE0C701B6010E9473036EE289E727
:100BF00092E00E94100220E030E040E251E4C501A2
:100C0000B4010E94060B4B015C010E94680C6B0151
:100C1000F12CE12C4AE0C701B6010E947303C70121
:100C2000B6010E94A50A9B01AC01C501B4010E9456
:100C3000FB0B20E030E040E251E40E94060B0E94F2
:100C4000680C90E080E04AE00E9473034FCF1F924F
:100C50000F920FB60F9211242F933F938F939F9370
:100C6000AF93BF938091730290917402A09175022B
:100C7000B091760230916E0223E0230F2D3758F5A4
:100C80000196A11DB11D20936E0280937302909373
:100C90007402A0937502B093760280916F029091D6
:100CA0007002A0917102B09172020196A11DB11D56
:100CB00080936F0290937002A0937102B0937202BE
:100CC000BF91AF919F918F913F912F910F900FBE48
:100CD0000F901F90189526E8230F0296A11DB11DB5
:100CE000D2CF1F920F920FB60F9211242F933F93E2
:100CF0004F935F936F937F938F939F93AF93BF9324
:100D0000EF93FF9389E792E00E94EE01FF91EF914C
:100D1000BF91AF919F918F917F916F915F914F9113
:100D20003F912F910F900FBE0F901F9018951F921B
:100D30000F920FB60F9211242F938F939F93EF93DF
:100D4000FF93E0918902F0918A028081E0918F0205
:100D5000F091900282FD1BC09081809192028F5F82
:100D60008F7320919302821741F0E0919202F0E09C
:100D7000E758FD4F958F80939202FF91EF919F91DD
:100D80008F912F910F900FBE0F901F90189580811B
:100D9000F4CF0F931F93E9E7F2E01382128288EEFB
:100DA00093E0A0E0B0E084839583A683B78380E3DB
:100DB00091E09183808385EC90E09587848784EC33
:100DC00090E09787868780EC90E0918B808B81EC18
:100DD00090E0938B828B82EC90E0958B848B86ECF9
:100DE00090E0978B868B118E128E138E148EE4E614
:100DF000F3E0108211821282138200E010E020E8FA
:100E00003FE3048315832683378310861186128679
:100E1000138640E050E064EB73EC448755876687A7
:100E2000778780E090E0A4EBB3E4808B918BA28B7A
:100E3000B38B148A158A168A178A008F118F228F16
:100E4000338F148E158E168E178E40A351A362A376
:100E500073A384A395A3A6A3B7A310A611A612A655
:100E600013A604A715A726A737A710AA11AA12AA86
:100E700013AA44AB55AB66AB77AB80AF91AFA2AFD3
:100E8000B3AF14AE15AE16AE17AE0093A403109315
:100E9000A5032093A6033093A7031092A8031092F2
:100EA000A9031092AA031092AB034093AC03509392
:100EB000AD036093AE037093AF038093B003909340
:100EC000B103A093B203B093B30360E471E08EE585
:100ED00093E00E947D0460E971E086E193E00E9466
:100EE0007D046AE971E08CE193E00E947D0463EA8D
:100EF00071E082E293E00E947D046DEA71E088E295
:100F000093E00E947D0466EB71E08EE293E00E9424
:100F10007D0460EC71E084E393E00E947D0469EC61
:100F200071E08AE393E00E947D0463ED71E080E468
:100F300093E00E947D046CED71E086E493E00E94F2
:100F40007D0465EE71E08CE493E00E947D046EEE1A
:100F500071E082E593E00E947D0467EF71E088E52F
:100F600093E01F910F910C947D04CF93DF93CDB745
:100F7000DEB72C970FB6F894DEBF0FBECDBF7894C6
:100F800084B5826084BD84B5816084BD85B582608E
:100F900085BD85B5816085BD80916E00816080933F
:100FA0006E001092810080918100826080938100A8
:100FB00080918100816080938100809180008160B8
:100FC000809380008091B10084608093B100809113
:100FD000B00081608093B00080917A00846080933B
:100FE0007A0080917A00826080937A0080917A0002
:100FF000816080937A0080917A00806880937A0083
:101000001092C100E0918902F0918A0282E080830F
:10101000E0918502F09186021082E0918702F091C2
:1010200088028FEC808310929102E0918D02F09102
:101030008E0286E08083E0918B02F0918C028081A9
:1010400080618083E0918B02F0918C0280818860C6
:101050008083E0918B02F0918C0280818068808394
:10106000E0918B02F0918C0280818F7D8083ACE0D7
:10107000B1E08D919D919927FC01E057FF4F24919C
:1010800084589F4FFC0184918823A1F090E0880F41
:10109000991FFC01E859FF4F45915491FC01EE580E
:1010A000FF4F859194918FB7F894FA019081922B1C
:1010B00090838FBFF1E0AC32BF07D9F689E792E0A9
:1010C0000E94CE01892B09F4A2C160E471E0CE0137
:1010D00001960E947D040E94800197FD0FC08D3013
:1010E000910561F08F83188641E050E0BE01695F91
:1010F0007F4FCE0101960E945104EDCF80915E0397
:1011000090915F03009709F4C1C069817A816115EC
:10111000710509F4B9C040916003509161032D81BC
:101120003E814217530708F4AFC00E94B40E8D8170
:101130009E8190936303809362031E821D82CE0181
:1011400001960E94210426E133E03A87298704E6CC
:1011500013E022242394312C209162033091630305
:10116000E985FA8584A995A92817390708F408C1E3
:10117000CF01C0960E94F903882309F401C1F5E06C
:10118000F29DC001F39D900D11249C012550310961
:101190003C872B8788E090E00E94D1030E94C50322
:1011A0000E94A70A4B015C01F80180829182A28211
:1011B000B38226E636E646E65FE30E94060B2B0185
:1011C0003C01F80120853185428553850E94FC0B46
:1011D0006B017C01F801C086D186E286F386248506
:1011E0003585468557850E94970C87FD1DC1F801FE
:1011F0002089318942895389C701B6010E94A00A1A
:1012000018160CF411C17101F1E0EF1AF0ECFF0AAD
:10121000EE0CFF1CEE0CFF1C20E030E0A901C50124
:10122000B4010E94970C87FD48C0D12CC12CB60197
:101230000D2C000C880B990B0E94A70AF801208145
:101240003181428153810E94A00A87FF36C04B85BD
:101250005C85B70190E080E00E94AE020E94F90038
:10126000FFEFCF1ADF0A20E030E040E85FE3F8014B
:1012700064817581868197810E94FC0BF8016483EB
:10128000758386839783D3CF0E94650D89819A8168
:1012900090935F0380935E038B819C8190936103A5
:1012A000809360038D819E8190936303809362039A
:1012B0001A8219821C821B8240CF20E030E0A901F3
:1012C000F80160817181828193810E94A00A87FF69
:1012D0004FC020E030E040E050E4F80164817581C7
:1012E000868197810E94FB0BF80164837583868356
:1012F0009783D12CC12CB6010D2C000C880B990BB7
:101300000E94A70AF80120813181428153810E9405
:10131000970C1816ECF44B855C85B70187E090E0DC
:101320000E94AE020E94F900F1E0CF1AD10820E03D
:1013300030E040E85FE3F801648175818681978140
:101340000E94FB0BF8016483758386839783D3CF58
:1013500020E030E040E050E4F8016481758186814E
:1013600097810E94FC0BF8016483758386839783C1
:1013700080E092E00E94B703109278021092770208
:1013800060E0822D0E94AE0461E0822D0E94AE04D6
:10139000FFEF2F1A3F0A29853A852A5F3F4F3A8788
:1013A00029870C5E1F4F35E02316310409F0D4CE97
:1013B00066E672E0CE0101960E947D0420916203F0
:1013C000309163038D819E8110E02817390728F042
:1013D000CE0101960E94F903182FCE0101960E94BA
:1013E00021041123A1F087E090E00E94D1030E9424
:1013F000C503653071058105910524F16A317105D8
:101400008105910514F5709301016093000180E05E
:1014100090E0892B09F452CE0E94DA01882309F466
:101420004DCE0E9400004ACEA3019201C701B60131
:101430000E94FB0BF801608771878287938782E0A7
:1014400092E098CF65E070E0DECF69E170E0DBCF3D
:10145000CF93DF93CEE5D3E02697CE010E942104FF
:1014600083E0C631D807C1F78EE593E0DF91CF91D5
:101470000C9421041F93FC0199278827BC01E89450
:1014800011911032E9F3193010F01E30C8F31B32FD
:1014900051F01D3249F4689406C00E94610A610F40
:1014A000711D811D911D119110531A30B0F33EF43E
:1014B00090958095709561957F4F8F4F9F4F1F91AD
:1014C0000895592F482F372F262F660F771F881F13
:1014D000991F660F771F881F991F620F731F841F44
:1014E000951F660F771F881F991F0895BB27FB0163
:1014F0005527AA27880F991FAA1FA41710F0A41B0D
:1015000083955051B9F7A05DAA3308F0A95DA19366
:10151000009779F7B111B1931192CB010C94900A15
:10152000DC01FC01672F71917723E1F7329704C04A
:101530007C916D9370836291AE17BF07C8F30895D5
:101540000E94E20A08F481E00895E89409C097FB3C
:101550003EF490958095709561957F4F8F4F9F4F8A
:101560009923A9F0F92F96E9BB279395F6958795CE
:1015700077956795B795F111F8CFFAF4BB0F11F491
:1015800060FF1BC06F5F7F4F8F4F9F4F16C0882338
:1015900011F096E911C0772321F09EE8872F762F6E
:1015A00005C0662371F096E8862F70E060E02AF0AF
:1015B0009A95660F771F881FDAF7880F969587959B
:1015C00097F90895990F0008550FAA0BE0E8FEEF70
:1015D00016161706E807F907C0F012161306E407F7
:1015E000F50798F0621B730B840B950B39F40A26F0
:1015F00061F0232B242B252B21F408950A2609F4CE
:10160000A140A6958FEF811D811D08950E94190BA1
:101610000C948A0B0E947C0B38F00E94830B20F004
:10162000952311F00C94730B0C94790B11240C94EA
:10163000BE0B0E949B0B70F3959FC1F3950F50E07A
:10164000551F629FF001729FBB27F00DB11D639F74
:10165000AA27F00DB11DAA1F649F6627B00DA11D1A
:10166000661F829F2227B00DA11D621F739FB00DC0
:10167000A11D621F839FA00D611D221F749F332730
:10168000A00D611D231F849F600D211D822F762FC9
:101690006A2F11249F5750409AF0F1F088234AF0A6
:1016A000EE0FFF1FBB1F661F771F881F9150504012
:1016B000A9F79E3F510580F00C94730B0C94BE0B60
:1016C0005F3FE4F3983ED4F3869577956795B79599
:1016D000F795E7959F5FC1F7FE2B880F911D9695B3
:1016E000879597F9089597F99F6780E870E060E023
:1016F00008959FEF80EC089500240A9416161706AB
:1017000018060906089500240A94121613061406F2
:1017100005060895092E0394000C11F4882352F055
:10172000BB0F40F4BF2B11F460FF04C06F5F7F4F0D
:101730008F4F9F4F089557FD9058440F551F59F0F4
:101740005F3F71F04795880F97FB991F61F09F3FAE
:1017500079F087950895121613061406551FF2CFD7
:101760004695F1DF08C0161617061806991FF1CF27
:1017700086957105610508940895E894BB2766274E
:101780007727CB0197F908952F923F924F925F925E
:101790006F927F928F929F92AF92BF92CF92DF9281
:1017A000EF92FF920F931F93CF93DF93CDB7DEB7E6
:1017B000CA1BDB0B0FB6F894DEBF0FBECDBF09947A
:1017C0002A88398848885F846E847D848C849B84D1
:1017D000AA84B984C884DF80EE80FD800C811B81DF
:1017E000AA81B981CE0FD11D0FB6F894DEBF0FBE0E
:1017F000CDBFED0108955058BB27AA270E94130CB6
:101800000C948A0B0E947C0B38F00E94830B20F012
:1018100039F49F3F19F426F40C94790B0EF4E095FB
:10182000E7FB0C94730BE92F0E949B0B58F3BA173C
:10183000620773078407950720F079F4A6F50C94E6
:10184000BD0B0EF4E0950B2EBA2FA02D0B01B901A4
:1018500090010C01CA01A0011124FF27591B99F026
:10186000593F50F4503E68F11A16F040A22F232F32
:10187000342F4427585FF3CF469537952795A79582
:10188000F0405395C9F77EF41F16BA0B620B730B29
:10189000840BBAF09150A1F0FF0FBB1F661F771F9A
:1018A000881FC2F70EC0BA0F621F731F841F48F44F
:1018B000879577956795B795F7959E3F08F0B0CFD8
:1018C0009395880F08F09927EE0F979587950895BF
:1018D0000E94A30B88F09F5798F0B92F9927B75112
:1018E000B0F0E1F0660F771F881F991F1AF0BA95C4
:1018F000C9F714C0B13091F00E94BD0BB1E008955A
:101900000C94BD0B672F782F8827B85F39F0B93F4B
:10191000CCF3869577956795B395D9F73EF4909576
:101920008095709561957F4F8F4F9F4F08950E94CE
:10193000E20A08F48FEF08950E94E20A880B990BDF
:101940000895A1E21A2EAA1BBB1BFD010DC0AA1F00
:10195000BB1FEE1FFF1FA217B307E407F50720F018
:10196000A21BB30BE40BF50B661F771F881F991F93
:101970001A9469F760957095809590959B01AC01DC
:10198000BD01CF010895EE0FFF1F0590F491E02DEA
:1019900009940F931F93CF93DF938230910510F436
:1019A00082E090E0E091B603F091B70330E020E0F0
:1019B000B0E0A0E0309799F42115310509F44AC050
:1019C000281B390B24303105D8F58A819B8161159C
:1019D000710589F1FB0193838283FE0111C040816F
:1019E00051810281138148175907E0F048175907C0
:1019F00099F4109761F012960C93129713961C931A
:101A00003296CF01DF91CF911F910F9108950093EE
:101A1000B6031093B703F4CF2115310551F04217E7
:101A2000530738F0A901DB019A01BD01DF01F8017C
:101A3000C1CFEF01F9CF9093B7038093B603CDCF19
:101A4000FE01E20FF31F81939193225031093983F4
:101A50002883D7CF2091B4033091B503232B41F4D1
:101A600020910801309109013093B5032093B4030C
:101A700020910601309107012115310541F42DB760
:101A80003EB740910A0150910B01241B350BE091A8
:101A9000B403F091B503E217F307A0F42E1B3F0B3C
:101AA0002817390778F0AC014E5F5F4F24173507D0
:101AB00048F04E0F5F1F5093B5034093B4038193DA
:101AC00091939FCFF0E0E0E09CCFCF93DF9300971E
:101AD000E9F0FC01329713821282A091B603B09113
:101AE000B703ED0130E020E01097A1F420813181AF
:101AF000820F931F2091B4033091B5032817390743
:101B000009F061C0F093B503E093B403DF91CF9186
:101B10000895EA01CE17DF07E8F54A815B819E014F
:101B200041155105B1F7E901FB83EA8349915991C8
:101B3000C40FD51FEC17FD0761F4808191810296D7
:101B4000840F951FE90199838883828193819B8308
:101B50008A83F0E0E0E012968D919C9113970097B4
:101B6000B9F52D913C911197CD010296820F931FEB
:101B70002091B4033091B5032817390739F630970F
:101B800051F51092B7031092B603B093B503A0932A
:101B9000B403BCCFD383C28340815181840F951F8E
:101BA000C817D90761F44E5F5F4F88819981480F4C
:101BB000591F518340838A819B819383828321159E
:101BC000310509F0B0CFF093B703E093B6039ECF91
:101BD000FD01DC01C0CF13821282D7CFB0E0A0E0BC
:101BE000E4EFFDE00C94C60B8C01009751F4CB019F
:101BF0000E94C90C8C01C801CDB7DEB7E0E10C949E
:101C0000E20BFC01E60FF71F9C0122503109E2179D
:101C1000F30708F49DC0D901CD91DC911197C61747
:101C2000D70798F0C530D10530F3CE010497861759
:101C3000970708F3C61BD70B2297C193D1936D93D7
:101C40007C93CF010E94650DD6CF5B01AC1ABD0A13
:101C50004C018C0E9D1EA091B603B091B703512C80
:101C6000412CF12CE12C109731F58091B403909127
:101C7000B5038815990509F05CC04616570608F0AB
:101C800058C08091060190910701009741F48DB7EB
:101C90009EB740910A0150910B01841B950BE817E8
:101CA000F90708F055C0F093B503E093B403F901C8
:101CB00071836083A0CF8D919C91119712966C9047
:101CC000129713967C901397A815B90559F56C01D6
:101CD00042E0C40ED11CCA14DB0420F1AC014A1945
:101CE0005B09DA011296159780F062827382518344
:101CF0004083D9016D937C93E114F10471F0D70115
:101D00001396FC93EE93129776CF22968C0F9D1F1D
:101D1000F90191838083F301EFCFF093B703E09350
:101D2000B60369CF4816590608F42C017D01D3018A
:101D30009ACFCB010E94C90C7C01009749F0AE01FB
:101D4000B8010E94AB0EC8010E94650D870153CFF8
:101D500010E000E050CFFB01DC0102C001900D92C9
:101D600041505040D8F70895FB01DC0101900D92DD
:101D70000020E1F70895FB01DC014150504030F0B4
:101D80008D910190801919F40020B9F7881B990BE7
:101D90000895FB01DC014150504048F001900D9244
:101DA0000020C9F701C01D9241505040E0F708954E
:101DB00010E0CDE5D0E004C0FE010E94C30C2196E6
:0A1DC000CE35D107C9F7F894FFCF24
:101DCA000A000000A0410000B803800002000300DE
:101DDA000400050006000700080009000A000B00BD
:101DEA000C000D000E000F00100011000000000092
:101DFA00100230015D015D02CE016C01C0010D0AC5
:101E0A00004D6F746F725B005D3A206F2076616CD3
:101E1A006F72206C696D69746520006D6178696DF7
:101E2A006F006D696E696D6F0020666F6920616C65
:101E3A0074657261646F20636F6D20737563657377
:101E4A00736F2E006E616E00696E66006F766600B3
:101E5A004D41584C4F57313A20004D415855503159
:101E6A003A20004D41584C4F57323A20004D4158C4
:101E7A005550323A20004D41584C4F57333A2000C2
:101E8A004D41585550333A20004D41584C4F573424
:101E9A003A20004D41585550343A200047495241A2
:101EAA0052313A20004749524152323A20004749BA
:101EBA00524152333A20004749524152343A2000A3
:101ECA007C0041206661697861206C696D6974657E
:101EDA00206465206F70657261C3A7C3A36F206613
:101EEA006F6920756C7472617061737361646121CA
:101EFA0020506F72206661766F722C20616469636C
:101F0A00696F6E6520756D2076616C6F72206465ED
:101F1A006E74726F20646F7320706172C3A26D65F4
:0E1F2A0074726F732E0054454D504F3A2000D4
:00000001FF
