:020000040000FA
:100000000C945D000C9485000C9485000C94850084
:100010000C9485000C9485000C9485000C9485004C
:100020000C9485000C9485000C9485000C9485003C
:100030000C9485000C9485000C9485000C9485002C
:100040000C94C2050C9485000C9490050C946A05E0
:100050000C9485000C9485000C9485000C9485000C
:100060000C9485000C94850000000008000201003B
:100070000003040700000000000000000000000072
:10008000250028002B0000000000240027002A0083
:10009000040404040404040402020202020203032E
:1000A0000303030301020408102040800102040836
:1000B0001020010204081020630811241FBECFEF96
:1000C000D8E0DEBFCDBF23E0ACE4B2E001C01D92BA
:1000D000A230B207E1F712E0A0E0B1E0E0EFFAE110
:1000E00002C005900D92AC34B107D9F710E0CDE510
:1000F000D0E004C02197FE010E94610BCC35D107EE
:10010000C9F70E940C060C94760D0C940000AF9277
:10011000BF92CF92DF92EF92FF920F931F93CF93F4
:10012000DF936C017B018B01040F151FEB015E0156
:10013000AE18BF08C017D10759F06991D601ED91EB
:10014000FC910190F081E02DC6010995892B79F78A
:10015000C501DF91CF911F910F91FF90EF90DF903C
:10016000CF90BF90AF900895FC01538D448D252F03
:1001700030E0842F90E0821B930B541710F0CF9641
:10018000089501970895FC01918D828D981761F073
:10019000A28DAE0FBF2FB11D5D968C91928D9F5F8A
:1001A0009F73928F90E008958FEF9FEF08952FB780
:1001B000F89480915D0290915E02A0915F02B091EF
:1001C00060022FBF8093690290936A02A0936B0232
:1001D000B0936C0281E692E00E94C30097FF26C0B4
:1001E0002FB7F89480915D0290915E02A0915F021A
:1001F000B09160022FBF4091690250916A026091F4
:100200006B0270916C02841B950BA60BB70B40918F
:1002100065025091660260916702709168028417CE
:100220009507A607B707B0F28FEF9FEF0895FC017F
:10023000918D828D981731F0828DE80FF11D858D9B
:1002400090E008958FEF9FEF0895FC01918D228D2E
:10025000892F90E0805C9F4F821B91098F739927B3
:10026000089581E692E00E94250121E0892B09F49E
:1002700020E0822F089580E090E0892B29F00E94F1
:10028000310181110C9400000895FC01A48DA80F88
:10029000B92FB11DA35ABF4F2C91848D90E00196C8
:1002A0008F739927848FA689B7892C93A089B189E8
:1002B0008C91837080648C93938D848D981306C089
:1002C0000288F389E02D80818F7D80830895EF92ED
:1002D000FF920F931F93CF93DF93EC0181E0888F00
:1002E0009B8D8C8D98131AC0E889F989808185FFD0
:1002F00015C09FB7F894EE89FF896083E889F98972
:1003000080818370806480839FBF81E090E0DF9173
:10031000CF911F910F91FF90EF900895F62E0B8DC6
:1003200010E00F5F1F4F0F731127E02E8C8D8E1181
:100330000CC00FB607FCFACFE889F989808185FFE8
:10034000F5CFCE010E944501F1CFEB8DEC0FFD2FD3
:10035000F11DE35AFF4FF0829FB7F8940B8FEA89A3
:10036000FB8980818062CFCFCF93DF93EC01888DB2
:100370008823B9F0AA89BB89E889F9898C9185FD20
:1003800003C0808186FD0DC00FB607FCF7CF8C91AE
:1003900085FFF2CF808185FFEDCFCE010E94450120
:1003A000E9CFDF91CF91089590E0FC01E859FF4F2C
:1003B0002491FC01EC55FF4F3491FC01E057FF4FB5
:1003C000E491EE23C9F0222339F0233001F1A8F49F
:1003D000213019F1223029F1F0E0EE0FFF1FE4582F
:1003E000FF4FA591B4918FB7F894EC91611126C09D
:1003F00030953E233C938FBF08952730A9F02830D5
:10040000C9F0243049F7809180008F7D03C080912E
:1004100080008F7780938000DFCF84B58F7784BD95
:10042000DBCF84B58F7DFBCF8091B0008F77809339
:10043000B000D2CF8091B0008F7DF9CF3E2BDACFC4
:100440003FB7F89480914D0290914E02A0914F02D7
:10045000B091500226B5A89B05C02F3F19F0019618
:10046000A11DB11D3FBFBA2FA92F982F8827BC010E
:10047000CD01620F711D811D911D42E0660F771F36
:10048000881F991F4A95D1F708958F929F92AF9236
:10049000BF92CF92DF92EF92FF924B015C010E94DC
:1004A00020026B017C010E9420026C197D098E09DB
:1004B0009F09683E734081059105A8F321E0821AE7
:1004C0009108A108B10888EEC80E83E0D81EE11C8F
:1004D000F11C81149104A104B10429F7FF90EF905D
:1004E000DF90CF90BF90AF909F908F9008951F9313
:1004F000CF93DF93162FD42FC22F682F82E00E9454
:10050000D401612F83E00E94D4016D2F84E00E940A
:10051000D4016C2F85E0DF91CF911F910C94D40111
:10052000FC0101900020E9F73197AF01481B590BFE
:10053000BC0181E692E00C9487008F929F92AF926B
:10054000BF920F931F93CF93DF93CDB7DEB7A197E1
:100550000FB6F894DEBF0FBECDBF19A2423008F42B
:100560004AE08E010F5D1F4F842E912CB12CA12CDF
:10057000A50194010E943F0BE62FB901CA01EA30A0
:10058000F4F4E05DD801EE938D01232B242B252B71
:1005900079F790E080E0109719F0CD010E94900269
:1005A000A1960FB6F894DEBF0FBECDBFDF91CF91FD
:1005B0001F910F91BF90AF909F908F900895E95C2D
:1005C000E1CFCF93DF930E949002EC0186E291E0AD
:1005D0000E9490028C0F9D1FDF91CF9108954F9242
:1005E0005F926F927F928F929F92AF92BF92CF92C3
:1005F000DF92EF92FF920F931F93CF936B017C01D9
:10060000742EAC019B010E943A0B882399F089E279
:1006100091E0CF911F910F91FF90EF90DF90CF90DD
:10062000BF90AF909F908F907F906F905F904F9012
:100630000C94900246015701E894B7F82FEF3FEF72
:100640004FE75FE7C501B4010E943A0B81110DC06D
:100650002FEF3FEF4FE75FE7C501B4010E94CC08E1
:1006600018161CF48DE291E0D4CF2FEF3FEF4FE747
:100670005FE4C701B6010E94350B18161CF481E334
:1006800091E0C7CF2FEF3FEF4FE75FECC701B60117
:100690000E94CC0887FDF3CF20E030E0A901C7011C
:1006A000B6010E94CC0810E000E087FF0AC06DE2AE
:1006B00081E692E00E9467018C01F7FAF094F7F866
:1006C000F094C0E060E070E080E09FE37C1641F0D1
:1006D00020E030E040E251E40E94940ACF5FF6CF80
:1006E000A70196010E94280A2B013C010E94060BDB
:1006F0004B015C014AE00E949D027C01E00EF11E6C
:10070000CC23C1F1C501B4010E94D1089B01AC0109
:10071000C301B2010E94270A4B015C016EE281E62F
:1007200092E00E946701E80EF91EC15018F120E026
:1007300030E040E251E4C501B4010E9432092B01CE
:100740003C010E94060B4B01B12CA12C4AE0C501D3
:10075000B4010E949D02E80EF91EC501B4010E9479
:10076000D1089B01AC01C301B2010E94270A4B01D1
:100770005C01DBCFC701CF911F910F91FF90EF90EC
:10078000DF90CF90BF90AF909F908F907F906F90B1
:100790005F904F900895CF92DF92EF92FF92CF93A8
:1007A000DF936C01990FEE08FF08F7FE1FC06DE2A2
:1007B00081E692E00E946701EC0166277727CB0172
:1007C0006C197D098E099F094AE00E949D02C80F9D
:1007D000D91F86E291E00E9490028C0F9D1FDF914D
:1007E000CF91FF90EF90DF90CF9008954AE0C7013E
:1007F000B6010E949D02EC01ECCFCF92DF92EF9206
:10080000FF927B01209104013091050128303105D0
:1008100020F09093050180930401E0910401E830F9
:10082000E0F4F0E0EA5EFB4F0C94610B1E0422043E
:100830002704A504A804AC04AE04B10420E040E001
:1008400060E003C020E040E061E081E004C020E01F
:1008500040E061E080E00E94770285E391E00E9441
:10086000900280910401909105010E94CB038DE3D9
:1008700091E00E949002C701F7FE03C09195819517
:10088000910901960E94CB0385E491E00E949002B9
:1008900080915B0290915C020E94CB0381E591E024
:1008A0000E94900260915702709158028091590203
:1008B00090915A0242E00E94EF0286E291E00E948B
:1008C000900289E591E00E94E1026091000170913F
:1008D000010180910201909103010E94060B623098
:1008E000710548F0660F771F660F771F6550710915
:1008F000CB010197F1F7809151029091520201963C
:10090000909352028093510264E170E0681B790B6E
:10091000072E000C880B990B0E94D3086B017C01F9
:1009200020E030E040EA50E40E94CC0887FD1BC084
:10093000C0920001D0920101E0920201F092030105
:10094000FF90EF90DF90CF90089520E041E081CFBD
:1009500020E041E060E07ECF21E0FBCF21E040E0FD
:10096000F9CF21E06CCF80E090E0A0EAB0E4809382
:10097000000190930101A0930201B0930301E0CF25
:10098000CF93DF93FC014481558141155105C1F09E
:100990009A016417750708F49B01EC01888199811D
:1009A000421B530B5D834C83BC01620F731F0E947B
:1009B000670DE881F9818C819D81E80FF91F108214
:1009C000DF91CF910895FC0180819181009711F012
:1009D0000C94030C0895FB0144815581FC01248192
:1009E00035812417350778F080819181009759F07F
:1009F000FB01608171816115710529F00E94590D1B
:100A000021E0892B09F020E0822F08950F931F9396
:100A1000CF93DF93EC0188819981009759F02A8167
:100A20003B812617370730F081E0DF91CF911F918E
:100A30000F9108958B016F5F7F4F0E948C0C009780
:100A400059F0998388831B830A832C813D81232B52
:100A500059F7FC011082E8CF80E0E7CFEF92FF92D8
:100A60000F931F93CF93DF93EC017B0119821882C0
:100A70001B821A821D821C82FB0101900020E9F773
:100A800031978F01061B170BB8010E9406052881BC
:100A90003981811113C02115310519F0C9010E9456
:100AA000030C198218821D821C821B821A82DF911C
:100AB000CF911F910F91FF90EF9008951D830C83AC
:100AC000B701C901DF91CF911F910F91FF90EF9076
:100AD0000C94520D1F920F920FB60F9211242F9368
:100AE0003F934F935F936F937F938F939F93AF93B6
:100AF000BF93EF93FF9381E692E00E944501FF913F
:100B0000EF91BF91AF919F918F917F916F915F9185
:100B10004F913F912F910F900FBE0F901F901895FE
:100B20001F920F920FB60F9211242F938F939F93C2
:100B3000EF93FF93E0917102F09172028081E09156
:100B40007702F091780282FD1BC0908180917A0239
:100B50008F5F8F7320917B02821741F0E0917A02C0
:100B6000F0E0EF59FD4F958F80937A02FF91EF915E
:100B70009F918F912F910F900FBE0F901F901895FE
:100B80008081F4CF1F920F920FB60F9211242F93F2
:100B90003F938F939F93AF93BF9380915D0290910A
:100BA0005E02A0915F02B091600230914C0223E09E
:100BB000230F2D3758F50196A11DB11D20934C022E
:100BC00080935D0290935E02A0935F02B0936002F7
:100BD00080914D0290914E02A0914F02B09150022F
:100BE0000196A11DB11D80934D0290934E02A093DA
:100BF0004F02B0935002BF91AF919F918F913F915F
:100C00002F910F900FBE0F901F90189526E8230F7D
:100C10000296A11DB11DD2CFCF93DF93CDB7DEB722
:100C20002C970FB6F894DEBF0FBECDBF789484B575
:100C3000826084BD84B5816084BD85B5826085BDD8
:100C400085B5816085BD80916E00816080936E0066
:100C50001092810080918100826080938100809158
:100C60008100816080938100809180008160809309
:100C700080008091B10084608093B1008091B000C9
:100C800081608093B00080917A00846080937A00C4
:100C900080917A00826080937A0080917A008160EE
:100CA00080937A0080917A00806880937A00109215
:100CB000C100E0917102F091720282E08083E091C4
:100CC0006D02F0916E021082E0916F02F09170025D
:100CD0008FEC808310927902E0917502F091760298
:100CE00086E08083E0917302F091740280818061DC
:100CF0008083E0917302F091740280818860808328
:100D0000E0917302F0917402808180688083E091A9
:100D10007302F091740280818F7D8083A2E2B1E042
:100D200026E231E08D9190E0FC01EC55FF4F64919B
:100D300080579F4FFC0184918823A1F090E0880F99
:100D4000991FFC01EA57FF4F45915491FC01E4586B
:100D5000FF4F859194918FB7F894FA019081962B6B
:100D600090838FBF2A173B07E9F600E010E081E689
:100D700092E00E942501892B09F471C118861F8217
:100D80001A8619861C861B8670E060E0CE010796E5
:100D90000E9406052F81388581112FC0211531054C
:100DA00019F0C9010E94030C18861F821C861B863D
:100DB0001A8619860E94D70097FD27C08D309105AD
:100DC00021F189831A82EB84FC84FFEFEF1AFF0A7A
:100DD000B701CE0107960E940605882359F32F819B
:100DE00038858B859C85BE016F5F7F4F820F931F77
:100DF0000E94520DFC86EB86DDCF1C861B8668E2C6
:100E000071E0C9010E94520DD5CF6FE671E0CE01AD
:100E100001960E942E05BE016F5F7F4FCE0107969F
:100E20000E94EB04F82ECE0101960E94E304FF20FD
:100E300009F4B3C067E070E0CE0107960E94C004D9
:100E40008F819885009709F467C00E9490087B0104
:100E500070935C0260935B02072E000C880B990B69
:100E60000E94D30826E636E646E65FE30E94320992
:100E70002B013C01209157023091580240915902B8
:100E800050915A020E94280A4B015C01809257023D
:100E900090925802A0925902B0925A0220915302A5
:100EA0003091540240915502509156020E94350BE8
:100EB00018160CF0E6C02091060130910701409110
:100EC000080150910901C501B4010E94CC0887FFB7
:100ED000D8C0F7FC25C0F12CE12C80915B029091E9
:100EE0005C02E816F906E4F4B70190E080E00E94A5
:100EF000FD036CE271E080E090E00E9445028FEF1C
:100F0000E81AF80A809104019091050101969093E6
:100F1000050180930401E1CF60E070E0CB0197CF41
:100F200080915B0290915C0297FF33C08091040135
:100F30009091050102979093050180930401F12C93
:100F4000E12C80915B0290915C028E159F05C4F4A8
:100F5000B70187E090E00E94FD036CE271E080E061
:100F600090E00E944502E1E0EE1AF1088091040150
:100F70009091050101979093050180930401E1CFC1
:100F80008091040190910501029690930501809350
:100F9000040110925202109251026BED71E0CE01E9
:100FA00001960E942E05BE016F5F7F4FCE0107960E
:100FB0000E94EB04F82ECE0101960E94E304FF206C
:100FC000D9F067E070E0CE0107960E94C0048F81DF
:100FD0009885009709F46FC00E9490080E94D3087A
:100FE00060930601709307018093080190930901B3
:100FF00083EE91E00E94E10263E172E0CE0101968E
:101000000E942E05BE016F5F7F4FCE0107960E94A2
:10101000EB04F82ECE0101960E94E304FF20D9F0E4
:1010200068E070E0CE0107960E94C0048F81988529
:10103000009709F444C00E9490080E94D30860936E
:1010400053027093540280935502909356028CE1A0
:1010500092E00E94E102CE0107960E94E30468EE4E
:1010600073E080E090E00E9445020115110509F44B
:101070007ECE0E943101882309F479CE0E940000BF
:1010800076CEA3019201C501B4010E94270A6093A4
:101090005702709358028093590290935A0242E08B
:1010A0000E94EF0286E291E00E94900287E791E0C1
:1010B0000E94E1026ECF60E070E0CB018FCF60E074
:1010C00070E0CB01BACFE1E6F2E01382128288EE43
:1010D00093E0A0E0B0E084839583A683B78384E1A6
:1010E00091E09183808385EC90E09587848784EC00
:1010F00090E09787868780EC90E0918B808B81ECE5
:1011000090E0938B828B82EC90E0958B848B86ECC5
:1011100090E0978B868B118E128E138E148E08950D
:101120001F93FC0199278827BC01E8941191103284
:10113000E9F3193010F01E30C8F31B3251F01D32A4
:1011400049F4689406C00E94B708610F711D811DA3
:10115000911D119110531A30B0F33EF49095809583
:10116000709561957F4F8F4F9F4F1F910895592F15
:10117000482F372F262F660F771F881F991F660F5E
:10118000771F881F991F620F731F841F951F660F9B
:10119000771F881F991F08950E940E0908F481E0A7
:1011A0000895E89409C097FB3EF49095809570955A
:1011B00061957F4F8F4F9F4F9923A9F0F92F96E9A3
:1011C000BB279395F695879577956795B795F11118
:1011D000F8CFFAF4BB0F11F460FF1BC06F5F7F4FB5
:1011E0008F4F9F4F16C0882311F096E911C07723C7
:1011F00021F09EE8872F762F05C0662371F096E8D0
:10120000862F70E060E02AF09A95660F771F881F9E
:10121000DAF7880F9695879597F90895990F000842
:10122000550FAA0BE0E8FEEF16161706E807F907B8
:10123000C0F012161306E407F50798F0621B730B53
:10124000840B950B39F40A2661F0232B242B252BD4
:1012500021F408950A2609F4A140A6958FEF811D77
:10126000811D08950E9445090C94B6090E94A809A1
:1012700038F00E94AF0920F0952311F00C949F09DB
:101280000C94A50911240C94EA090E94C70970F373
:10129000959FC1F3950F50E0551F629FF001729F1B
:1012A000BB27F00DB11D639FAA27F00DB11DAA1F2A
:1012B000649F6627B00DA11D661F829F2227B00D77
:1012C000A11D621F739FB00DA11D621F839FA00D02
:1012D000611D221F749F3327A00D611D231F849F52
:1012E000600D211D822F762F6A2F11249F575040A9
:1012F0009AF0F1F088234AF0EE0FFF1FBB1F661F24
:10130000771F881F91505040A9F79E3F510580F0EC
:101310000C949F090C94EA095F3FE4F3983ED4F3E0
:10132000869577956795B795F795E7959F5FC1F790
:10133000FE2B880F911D9695879597F9089597F93B
:101340009F6780E870E060E008959FEF80EC08956B
:1013500000240A9416161706180609060895002494
:101360000A9412161306140605060895092E03940E
:10137000000C11F4882352F0BB0F40F4BF2B11F482
:1013800060FF04C06F5F7F4F8F4F9F4F089557FDE1
:101390009058440F551F59F05F3F71F04795880FE3
:1013A00097FB991F61F09F3F79F08795089512167A
:1013B00013061406551FF2CF4695F1DF08C0161626
:1013C00017061806991FF1CF8695710561050894D7
:1013D0000895E894BB2766277727CB0197F90895EE
:1013E0002F923F924F925F926F927F928F929F9235
:1013F000AF92BF92CF92DF92EF92FF920F931F9323
:10140000CF93DF93CDB7DEB7CA1BDB0B0FB6F894D3
:10141000DEBF0FBECDBF09942A88398848885F8413
:101420006E847D848C849B84AA84B984C884DF8084
:10143000EE80FD800C811B81AA81B981CE0FD11D68
:101440000FB6F894DEBF0FBECDBFED010895505822
:10145000BB27AA270E943F0A0C94B6090E94A8093C
:1014600038F00E94AF0920F039F49F3F19F426F4B8
:101470000C94A5090EF4E095E7FB0C949F09E92F65
:101480000E94C70958F3BA176207730784079507C4
:1014900020F079F4A6F50C94E9090EF4E0950B2EF2
:1014A000BA2FA02D0B01B90190010C01CA01A001B6
:1014B0001124FF27591B99F0593F50F4503E68F111
:1014C0001A16F040A22F232F342F4427585FF3CF52
:1014D000469537952795A795F0405395C9F77EF423
:1014E0001F16BA0B620B730B840BBAF09150A1F06C
:1014F000FF0FBB1F661F771F881FC2F70EC0BA0FF2
:10150000621F731F841F48F4879577956795B79579
:10151000F7959E3F08F0B0CF9395880F08F0992774
:10152000EE0F9795879508950E94A80A0C94B60926
:101530000E94AF0958F00E94A80940F029F45F3FCB
:1015400029F00C949F0951110C94EA090C94A509F7
:101550000E94C70968F39923B1F3552391F3951BB2
:10156000550BBB27AA2762177307840738F09F5FC4
:101570005F4F220F331F441FAA1FA9F335D00E2E31
:101580003AF0E0E832D091505040E695001CCAF79E
:101590002BD0FE2F29D0660F771F881FBB1F261761
:1015A00037074807AB07B0E809F0BB0B802DBF0138
:1015B000FF2793585F4F3AF09E3F510578F00C9407
:1015C0009F090C94EA095F3FE4F3983ED4F38695B3
:1015D00077956795B795F7959F5FC9F7880F911D28
:1015E0009695879597F90895E1E0660F771F881F14
:1015F000BB1F621773078407BA0720F0621B730BC7
:10160000840BBA0BEE1F88F7E09508950E94CF096E
:1016100088F09F5798F0B92F9927B751B0F0E1F0B3
:10162000660F771F881F991F1AF0BA95C9F714C063
:10163000B13091F00E94E909B1E008950C94E909F4
:10164000672F782F8827B85F39F0B93FCCF386959C
:1016500077956795B395D9F73EF4909580957095F9
:1016600061957F4F8F4F9F4F08950E940E0908F498
:101670008FEF08950E940E09880B990B0895A1E23F
:101680001A2EAA1BBB1BFD010DC0AA1FBB1FEE1FFC
:10169000FF1FA217B307E407F50720F0A21BB30B47
:1016A000E40BF50B661F771F881F991F1A9469F7C3
:1016B00060957095809590959B01AC01BD01CF011F
:1016C0000895EE0FFF1F0590F491E02D09940F93FC
:1016D0001F93CF93DF938230910510F482E090E066
:1016E000E0910003F091010330E020E0B0E0A0E0E1
:1016F000309799F42115310509F44AC0281B390B9C
:1017000024303105D8F58A819B816115710589F1F5
:10171000FB0193838283FE0111C0408151810281CC
:10172000138148175907E0F04817590799F41097A3
:1017300061F012960C93129713961C933296CF0178
:10174000DF91CF911F910F910895009300031093A3
:101750000103F4CF2115310551F04217530738F03A
:10176000A901DB019A01BD01DF01F801C1CFEF0141
:10177000F9CF9093010380930003CDCFFE01E20FD8
:10178000F31F819391932250310939832883D7CF56
:101790002091FE023091FF02232B41F420910C0195
:1017A00030910D013093FF022093FE0220910A0137
:1017B00030910B012115310541F42DB73EB7409111
:1017C0000E0150910F01241B350BE091FE02F091A8
:1017D000FF02E217F307A0F42E1B3F0B281739076F
:1017E00078F0AC014E5F5F4F2417350748F04E0F7D
:1017F0005F1F5093FF024093FE02819391939FCF0E
:10180000F0E0E0E09CCFCF93DF930097E9F0FC019C
:10181000329713821282A0910003B0910103ED016F
:1018200030E020E01097A1F420813181820F931FD6
:101830002091FE023091FF022817390709F061C09C
:10184000F093FF02E093FE02DF91CF910895EA0149
:10185000CE17DF07E8F54A815B819E0141155105EE
:10186000B1F7E901FB83EA8349915991C40FD51F70
:10187000EC17FD0761F4808191810296840F951F1A
:10188000E90199838883828193819B838A83F0E035
:10189000E0E012968D919C9113970097B9F52D91E8
:1018A0003C911197CD010296820F931F2091FE0269
:1018B0003091FF022817390739F6309751F5109209
:1018C000010310920003B093FF02A093FE02BCCF6D
:1018D000D383C28340815181840F951FC817D907D4
:1018E00061F44E5F5F4F88819981480F591F518382
:1018F00040838A819B81938382832115310509F07E
:10190000B0CFF0930103E09300039ECFFD01DC0113
:10191000C0CF13821282D7CFB0E0A0E0E2E9FCE0B2
:101920000C94F2098C01009751F4CB010E94670BD3
:101930008C01C801CDB7DEB7E0E10C940E0AFC01C2
:10194000E60FF71F9C0122503109E217F30708F454
:101950009DC0D901CD91DC911197C617D70798F09A
:10196000C530D10530F3CE0104978617970708F3E9
:10197000C61BD70B2297C193D1936D937C93CF0154
:101980000E94030CD6CF5B01AC1ABD0A4C018C0E31
:101990009D1EA0910003B0910103512C412CF12C0C
:1019A000E12C109731F58091FE029091FF0288158D
:1019B000990509F05CC04616570608F058C080919A
:1019C0000A0190910B01009741F48DB79EB74091A9
:1019D0000E0150910F01841B950BE817F90708F0D1
:1019E00055C0F093FF02E093FE02F901718360831A
:1019F000A0CF8D919C91119712966C90129713968F
:101A00007C901397A815B90559F56C0142E0C40EF6
:101A1000D11CCA14DB0420F1AC014A195B09DA01BC
:101A20001296159780F06282738251834083D901A8
:101A30006D937C93E114F10471F0D7011396FC933C
:101A4000EE93129776CF22968C0F9D1FF90191830A
:101A50008083F301EFCFF0930103E093000369CF9C
:101A60004816590608F42C017D01D3019ACFCB0109
:101A70000E94670B7C01009749F0AE01B8010E94FB
:101A8000490DC8010E94030C870153CF10E000E00C
:101A900050CFFB01DC0102C001900D92415050403B
:101AA000D8F70895FB01DC0101900D920020E1F7C9
:101AB0000895FB01DC014150504030F08D910190C0
:101AC000801919F40020B9F7881B990B0895FB01C0
:101AD000DC014150504048F001900D920020C9F7C0
:101AE00001C01D9241505040E0F70895F894FFCF97
:101AF0000000A04101000000B44300000203800088
:101B00000000000067018700B400B4012501C30094
:101B10001701020304050D0A006E616E00696E660E
:101B2000006F766600506173736F3A200056657AD5
:101B300065733A2000446972656374696F6E3A2078
:101B400000416E676C653A20003D3D3D3D3D3D3DA9
:101B50003D3D3D3D3D3D3D3D3D3D3D3D3D3D0047E8
:101B6000495241523A200041206661697861206CF7
:101B7000696D697465206465206F70657261C3A7C3
:101B8000C3A36F20666F6920756C74726170617396
:101B9000736164612120506F72206661766F722CD0
:101BA0002061646963696F6E6520756D2076616C74
:101BB0006F722064656E74726F20646F7320706141
:101BC00072C3A26D6574726F732E004D41585550EB
:101BD0003A20004F2076616C6F72206C696D6974D9
:101BE00065206D6178696D6F20666F6920616C7426
:101BF000657261646F20636F6D20737563657373C5
:101C00006F2E004D41584C4F573A20004F207661BF
:101C10006C6F72206C696D697465206D696E696D99
:101C20006F20666F6920616C74657261646F2063F8
:0C1C30006F6D207375636573736F2E0079
:107E0000112484B714BE81FFF0D085E080938100F7
:107E100082E08093C00088E18093C10086E0809377
:107E2000C20080E18093C4008EE0C9D0259A86E02C
:107E300020E33CEF91E0309385002093840096BBD3
:107E4000B09BFECF1D9AA8958150A9F7CC24DD24C4
:107E500088248394B5E0AB2EA1E19A2EF3E0BF2EE7
:107E6000A2D0813461F49FD0082FAFD0023811F036
:107E7000013811F484E001C083E08DD089C08234E0
:107E800011F484E103C0853419F485E0A6D080C0E4
:107E9000853579F488D0E82EFF2485D0082F10E0AE
:107EA000102F00270E291F29000F111F8ED06801E7
:107EB0006FC0863521F484E090D080E0DECF843638
:107EC00009F040C070D06FD0082F6DD080E0C81688
:107ED00080E7D80618F4F601B7BEE895C0E0D1E017
:107EE00062D089930C17E1F7F0E0CF16F0E7DF06D8
:107EF00018F0F601B7BEE89568D007B600FCFDCFD4
:107F0000A601A0E0B1E02C9130E011968C91119780
:107F100090E0982F8827822B932B1296FA010C0160
:107F200087BEE89511244E5F5F4FF1E0A038BF0790
:107F300051F7F601A7BEE89507B600FCFDCF97BE46
:107F4000E89526C08437B1F42ED02DD0F82E2BD052
:107F50003CD0F601EF2C8F010F5F1F4F84911BD097
:107F6000EA94F801C1F70894C11CD11CFA94CF0C13
:107F7000D11C0EC0853739F428D08EE10CD085E9AC
:107F80000AD08FE07ACF813511F488E018D01DD067
:107F900080E101D065CF982F8091C00085FFFCCF94
:107FA0009093C60008958091C00087FFFCCF809118
:107FB000C00084FD01C0A8958091C6000895E0E648
:107FC000F0E098E1908380830895EDDF803219F02E
:107FD00088E0F5DFFFCF84E1DECF1F93182FE3DFCA
:107FE0001150E9F7F2DF1F91089580E0E8DFEE27F6
:047FF000FF270994CA
:027FFE00040479
:00000001FF
